:100000000C9464000C948C000C948C000C947F0E67
:100010000C947F0E0C947F0E0C948C000C94CA0BE5
:100020000C948C000C948C000C948C000C94C30DDC
:100030000C948C000C948C000C948C000C948C0010
:100040000C94800B0C948C000C94720C0C944C0C43
:100050000C948C000C948C000C948C000C948C00F0
:100060000C94A40C0C948C000200000000240027C7
:10007000002A00000000080002010000030407003D
:1000800000000000000000000000002300260029FE
:100090000000000000250028002B000404040404D4
:1000A0000404040202020202020303030303030125
:1000B00002040810204080010204081020010204FC
:1000C00008102000F70E1F1311241FBECFEFD8E039
:1000D000DEBFCDBF11E0A0E0B1E0E2EFFBE202C085
:1000E00005900D92AC37B107D9F723E0ACE7B1E04A
:1000F00001C01D92A83BB207E1F710E0C3E6D0E0D3
:1001000004C02197FE010E94E615C236D107C9F747
:100110000E9403100C94EC150C9400008F929F9297
:10012000AF92BF92CF92DF92EF92FF92CF93DF9385
:10013000A091AD0330E081113A2F8091AE0390E0A1
:10014000880F991FAC0149575F4FC090B303D090FF
:10015000B403E090B503F090B60360E070E0CB012B
:10016000FA01C591D49128812A2323130FC04B0192
:100170005C012FEF821A920AA20AB20A6C157D0561
:100180008E059F0570F060E070E0CB01DF91CF91AC
:10019000FF90EF90DF90CF90BF90AF909F908F90A7
:1001A0000895C501B401DCCF90E0FC01ED58FF4F8C
:1001B0002491FC01E155FF4F3491FC01E556FF4FBE
:1001C000E491EE23C9F0222339F0233001F1A8F4A1
:1001D000213019F1223029F1F0E0EE0FFF1FEF5628
:1001E000FF4FA591B4918FB7F894EC91611126C09F
:1001F00030953E233C938FBF08952730A9F02830D7
:10020000C9F0243049F7809180008F7D03C0809130
:1002100080008F7780938000DFCF84B58F7784BD97
:10022000DBCF84B58F7DFBCF8091B0008F7780933B
:10023000B000D2CF8091B0008F7DF9CF3E2BDACFC6
:10024000CF93DF9390E0FC01E155FF4F2491855659
:100250009F4FFC0184918823C9F090E0880F991F7B
:10026000FC01E759FF4FA591B491FC01EF56FF4FF8
:10027000C591D49161110DC09FB7F8948C912095D0
:1002800082238C938881282328839FBFDF91CF917D
:100290000895623051F49FB7F8943C91822F809575
:1002A00083238C93E8812E2BEFCF8FB7F894EC91BA
:1002B0002E2B2C938FBFEACF8E3008F08E50877094
:1002C000806480937C0080917A00806480937A00BF
:1002D00080917A0086FDFCCF809178009091790022
:1002E00008953FB7F8948091A0029091A102A09147
:1002F000A202B091A30226B5A89B05C02F3F19F01A
:100300000196A11DB11D3FBFBA2FA92F982F882795
:10031000BC01CD01620F711D811D911D42E0660F70
:10032000771F881F991F4A95D1F708958F929F9242
:10033000AF92BF92CF92DF92EF92FF924B015C019E
:100340000E9471016B017C010E9471016C197D0991
:100350008E099F09683E734081059105A8F321E04D
:10036000821A9108A108B10888EEC80E83E0D81E51
:10037000E11CF11C81149104A104B10429F7FF9040
:10038000EF90DF90CF90BF90AF909F908F900895A7
:10039000CF92DF92EF92FF920F931F93CF93DF9351
:1003A000CDB7DEB7C054D1400FB6F894DEBF0FBE54
:1003B000CDBF2FB7F8948091A4029091A502A0918F
:1003C000A602B091A7022FBF4091AF035091B00396
:1003D0006091B1037091B2038C019D01041B150B58
:1003E000260B370BB901A801403D57406105710547
:1003F00090F48091B703C05CDE4F0FB6F894DEBF77
:100400000FBECDBFDF91CF911F910F91FF90EF9065
:10041000DF90CF9008958093AF039093B003A093A3
:10042000B103B093B2031092AA031092A9031092E1
:10043000A8031092A7031092A60361E08091AB037A
:100440000E94D4006AEF70E080E090E00E94960184
:1004500061E08091AB030E94200160E08091AB03DA
:100460000E94D40064E170E080E090E00E94960178
:10047000F89461E08091AB030E94D4008BE990E096
:100480000197F1F762E08091AB030E94200183E2C3
:1004900090E00197F1F780E00E948E00672B682BB7
:1004A000692B29F41092B703789480E0A4CF81E0FF
:1004B0000E948E00672B682B692BA1F38E010F5FC2
:1004C0001F4F6E012FEBC21A2EEFD20A780180E087
:1004D0000E948E00F701608371838283938381E0A1
:1004E0000E948E00F7016483758386839783F8E00A
:1004F000EF0EF11CEC14FD0451F7789430E020E08D
:10050000F801C080D180E280F3804481558166810A
:100510007781C114D104E104F10429F0411551059A
:100520006105710519F41092B703BFCFF90183E09B
:10053000F595E7958A95E1F7EA55FC4F8081880F9C
:10054000C416D506E606F70610F180832F5F3F4FED
:10055000085F1F4F2832310599F64091AA03209178
:10056000A6038091A703280F3327331F8091A80388
:10057000280F311D8091A903820F932F911D992778
:100580004817190681F681E08093B70334CF816064
:10059000DCCF089508954F925F926F927F928F9271
:1005A0009F92AF92BF92CF92DF92EF92FF920F9302
:1005B0001F93CF93DF9300D000D01F92CDB7DEB74B
:1005C0008B0129013A01909100018917C9F09F3FE1
:1005D00009F47EC00F900F900F900F900F90DF9155
:1005E000CF911F910F91FF90EF90DF90CF90BF9030
:1005F000AF909F908F907F906F905F904F900895F5
:10060000E8E6F0E094919D8397FDE4CF61E00E94DD
:1006100020018D81882321F09D81923009F04AC10B
:100620004801B12CA12C60E072E18AE790E0A501BD
:1006300098010E943B1329833A834B835C836901B1
:100640007A0181E0C81AD108E108F1089FEFC916C4
:10065000D104E104F10409F00CF401C160E472E496
:100660008FE090E0A50198010E943B1369017A0197
:1006700081E0C81AD108E108F1089D81923009F0A3
:10068000A2C08FEFC816D104E104F10409F00CF404
:10069000E6C160E970ED83E090E0A50198010E9459
:1006A0003B1369017A0191E0C91AD108E108F10808
:1006B0008FEFC816D104E104F10411F00CF07FC1F2
:1006C00083E09091B100987F892B8093B100CFC0D7
:1006D00080930001E8E6F0E094919D839F3F09F448
:1006E00079CF913041F150F0923009F446C09D81AC
:1006F00097FD70CF61E00E9420018ECF14BC15BC25
:1007000094B5926094BD95B5916095BD282F30E069
:10071000F901E556FF4FE491F0E0EE0FFF1FEF56B1
:10072000FF4F45915491F901E155FF4FE491E0935A
:1007300070021D826BCF1092800010928100909108
:1007400081009860909381009091810091609093D6
:100750008100282F30E0F901E556FF4FE491F0E0E9
:10076000EE0FFF1FEF56FF4F45915491F901E155F0
:10077000FF4FE491E0936F0249CF1092B0001092C6
:10078000B1009091B00092609093B0009091B10050
:1007900091609093B100282F30E0F901E556FF4FAA
:1007A000E491F0E0EE0FFF1FEF56FF4F459154919B
:1007B00050937A0240937902F901E155FF4FE49199
:1007C000E0937B0223CF9FEFC916D104E104F1042B
:1007D00009F00CF46DC068E478EE81E090E0A501CA
:1007E00098010E943B1369017A0181E0C81AD1087F
:1007F000E108F1089D81992309F4FAC08FEFC8162A
:10080000D104E104F10411F00CF0FBC0EFC064E28C
:1008100074EF80E090E0A50194010E943B13690110
:100820007A0181E0C81AD108E108F10885E09FEF5C
:10083000C916D104E104F10409F008F442CF62E1E1
:100840007AE780E090E0A50194010E943B136901E2
:100850007A0181E0C81AD108E108F108E5C081E019
:100860009D8191112ECF95B5987F892B85BD2FEF56
:100870003FEFA901411451046104710409F043C020
:100880009D81913009F45EC0923009F46DC09111E0
:10089000A1CEC7BC209375023093760240937702B5
:1008A0005093780280916E00826080936E0092CEA9
:1008B00082E0D6CFB12CA12C60E072E18AE790E013
:1008C000A50198010E943B1369017A0181E0C81AD1
:1008D000D108E108F108C114D10491E0E906F1045E
:1008E00004F591E08D81813011F680918100887F3F
:1008F000892B809381002FEF3FEFA9014114510410
:1009000061047104F9F0D801AA0FBB1FA301920181
:100910000E945A1328EE33E040E050E00E946D132D
:10092000AFCF68E478EE81E090E0A50198010E94E5
:100930003B1369017A0181E0C81AD108E108F10886
:1009400093E0D0CFD0928900C092880020937102AA
:1009500030937202409373025093740280916F003F
:10096000826080936F0036CEC092B30020937C02E9
:1009700030937D0240937E0250937F0280917000FD
:1009800082608093700026CE84E09FEFC916D10468
:10099000E104F10409F008F466CFC980DA80EB8045
:1009A000FC808AE0F594E794D794C7948A95D1F7B0
:1009B00081E0C81AD108E108F10885E054CF68E465
:1009C00078EE81E090E0A50198010E943B13690157
:1009D0007A0181E0C81AD108E108F1089FEFC91631
:1009E000D104E104F10411F00CF011CF84E069CEE0
:1009F00083E09FEFC916D104E104F10409F00CF47F
:100A000032CF62E17AE780E090E0A50194010E9494
:100A10003B1369017A0181E0C81AD108E108F108A5
:100A20009D81992309F4B0CF86E09FEFC916D104C8
:100A3000E104F10409F008F444CEC980DA80EB80C7
:100A4000FC809AE0F594E794D794C7949A95D1F7EF
:100A500081E0C81AD108E108F10887E032CE82E0CF
:100A600030CEAF92BF92CF92DF92EF92FF920F9370
:100A70001F93CF93DF936C017B018B01040F151F34
:100A8000EB015E01AE18BF08C017D10759F069919C
:100A9000D601ED91FC910190F081E02DC601099500
:100AA000892B79F7C501DF91CF911F910F91FF90AD
:100AB000EF90DF90CF90BF90AF900895FC01538DE1
:100AC000448D252F30E0842F90E0821B930B541728
:100AD00010F0CF96089501970895FC01918D828DB5
:100AE000981761F0A28DAE0FBF2FB11D5D968C914E
:100AF000928D9F5F9F73928F90E008958FEF9FEF8D
:100B00000895FC01918D828D981731F0828DE80F48
:100B1000F11D858D90E008958FEF9FEF0895FC0102
:100B2000918D228D892F90E0805C9F4F821B9109CF
:100B30008F739927089588EA92E00E948F0521E03B
:100B4000892B09F420E0822F089580E090E0892B22
:100B500029F00E949B0581110C9400000895FC016E
:100B6000A48DA80FB92FB11DA35ABF4F2C91848D0E
:100B700090E001968F739927848FA689B7892C936B
:100B8000A089B1898C91837080648C93938D848DBE
:100B9000981306C00288F389E02D80818F7D8083C1
:100BA0000895EF92FF920F931F93CF93DF93EC0181
:100BB00081E0888F9B8D8C8D98131AC0E889F98904
:100BC000808185FF15C09FB7F894EE89FF89608307
:100BD000E889F98980818370806480839FBF81E088
:100BE00090E0DF91CF911F910F91FF90EF900895CA
:100BF000F62E0B8D10E00F5F1F4F0F731127E02EA5
:100C00008C8D8E110CC00FB607FCFACFE889F989DC
:100C1000808185FFF5CFCE010E94AF05F1CFEB8D2E
:100C2000EC0FFD2FF11DE35AFF4FF0829FB7F894B0
:100C30000B8FEA89FB8980818062CFCFCF93DF93CE
:100C4000EC01888D8823B9F0AA89BB89E889F989E4
:100C50008C9185FD03C0808186FD0DC00FB607FC19
:100C6000F7CF8C9185FFF2CF808185FFEDCFCE014C
:100C70000E94AF05E9CFDF91CF9108952091250221
:100C8000260F3327331F21323105ECF4209149021E
:100C9000FC0190E080E0243069F082E00895A091AA
:100CA00025022191AC014B5F5D4FA40FB52FB11D03
:100CB0002C930196861798F380912502680F609314
:100CC000250280E0089581E008951092490281E0B4
:100CD00080934B0210924A0261E082E10E94D400AC
:100CE00061E083E10E94D400E9EBF0E080818E7F37
:100CF000808380818D7F808388E48093B80085E441
:100D00008093BC000895CF93DF9391E09093040209
:100D10008823B9F0C091B800D091BA008091BC008E
:100D20008A7B8093BC0060E082E10E94D40060E096
:100D300083E10E94D4000E946506D093BA00C0935C
:100D4000B800DF91CF9108950895E0918B028091D2
:100D50008A02E81730F4F0E0E152FE4F808190E023
:100D600008958FEF9FEF089590918B0280918A02F2
:100D70002FEF3FEF981748F4E92FF0E0E152FE4FD4
:100D8000208130E09F5F90938B02C901089580918C
:100D90008A0290918B02891B990B0895CF92DF9262
:100DA000EF92FF920F931F93CF93DF937C01CB01C0
:100DB0008A012091DE01222389F0EB016B01C40E30
:100DC000D51ECC15DD0569F06991D701ED91FC9137
:100DD0000190F081E02DC7010995F3CF642F0E94A7
:100DE0003E06C801DF91CF911F910F91FF90EF90C8
:100DF000DF90CF900895CF93DF931F92CDB7DEB7EA
:100E000069832091DE012223F9F0209188022032AB
:100E100058F021E030E0FC013383228390E080E051
:100E20000F90DF91CF91089580918902E82FF0E033
:100E3000E254FE4F998190838F5F80938902809363
:100E4000880281E090E0ECCF61E0CE0101960E9443
:100E50003E06F7CF2091820230918302281739078E
:100E600071F49091800280918102981741F0E09195
:100E70008002F0E0E358FE4F808190E008958FEF0C
:100E80009FEF0895EF92FF920F931F93CF93DF93FD
:100E9000DC015C96ED90FC905D97E114F10479F42F
:100EA00081E090E013969C938E93129790E080E0FF
:100EB000DF91CF911F910F91FF90EF900895519680
:100EC000ED91FC91529750968C915097982F909558
:100ED0000FB75E962C915E97122F127021FD6095D0
:100EE000F8942081112319F1282B2083E701219701
:100EF000F1F728E0462F50E0308160FF1AC0382B10
:100F00003083E7012197F1F7BA0175956795215074
:100F100089F7112381F08081892380830FBF5C963C
:100F20008D919C910197F1F781E090E0C1CF292349
:100F3000DCCF3923E5CF9081892BEFCF209182023E
:100F4000309183022817390761F480918102209142
:100F5000800290E0805C9F4F821B91098F739927DC
:100F6000089590E080E008952091820230918302FC
:100F700028173907B9F4909180028091810298175F
:100F800089F0E0918002F0E0E358FE4F80812091EB
:100F9000800230E02F5F3F4F2F7333272093800272
:100FA00090E008958FEF9FEF0895CF92DF92EF9238
:100FB000FF921F93CF93DF93EC01809178038C30E5
:100FC00008F051C061E086E00E9420018091780322
:100FD000282F30E0F901EE0FFF1FE20FF31FEF5A49
:100FE000FC4F9081907C96609083109279031092D0
:100FF0007A032CE0622F0E94DA15829FB00111243F
:1010000030E020E0AB01420F531FFA01EE0FFF1F4B
:10101000E40FF51FEF5AFC4F908196FD16C02F5F2D
:101020003F4F2C30310571F781110FC010928000B5
:1010300082E0809381001092850010928400B19A22
:1010400080916F00826080936F00E09178038E2F13
:1010500090E0FC01EE0FFF1FE80FF91FEF5AFC4F65
:1010600080818064808310917803C03282E0D80749
:10107000E4F580917903E8E8CE2ED12CC81AD10886
:1010800087FDD394CC0CDD1CCC0CDD1C0D2C000C8E
:10109000EE08FF0880917A0328E532E0281B310929
:1010A00087FD3395220F331F220F331F032E000CB1
:1010B000440B550B2C193D094E095F09DE01C53B58
:1010C000D10514F0A4EBB0E0B7FF02C0B0E0A0E09F
:1010D0000E94651324EB30E040E050E00E943B1397
:1010E000C20ED31EE41EF51EE6011C3080F52091D1
:1010F000790388E890E0821B910927FD9395880F7A
:10110000991F880F991FC817D90784F020917A0377
:1011100088E592E0821B910927FD9395880F991F1E
:10112000880F991FC817D9070CF4CE010297880FB2
:10113000991F4FB7F894212F30E0F901EE0FFF1FF0
:10114000E20FF31FEF5AFC4F928381834FBF6CE293
:1011500071E080E090E00E949601E09178038E2F8C
:1011600090E0FC01EE0FFF1FE80FF91FEF5AFC4F54
:1011700080818F7B8083DF91CF911F91FF90EF90D3
:10118000DF90CF900895CF92DF92EF92FF920F936E
:101190001F93CF93DF93FC01C48121E02093DE01F4
:1011A000C0937C0110928902109288028385682B7B
:1011B00085E493E00E94FB06D0918802D13208F0CA
:1011C00092C00E9471016B017C01809149028111E2
:1011D00065C082E08093490281E080934B028FEFEB
:1011E0008093480210926D02D0936C02AEEBB1E096
:1011F000ECE4F2E080E0D81385C010926E0280919A
:101200006E02CC0FC82BC0936E0280914A028130CF
:1012100009F07CC010924A020E9471016B017C01AE
:1012200080916E028093BB00809100029091010238
:10123000A0910202B0910302892B8A2B8B2B99F08B
:101240000E9471010091000210910102209102029E
:10125000309103026C197D098E099F090617170743
:1012600028073907E0F18091BC0083FDD9CF85ECD8
:101270008093BC000E9471016B017C018091490246
:10128000823009F445C0809148028F3F61F180911E
:101290004802803241F18091480225C080910002CD
:1012A00090910102A0910202B0910302892B8A2B36
:1012B0008B2B09F48ACF0E947101009100021091DA
:1012C000010220910202309103026C197D098E09FE
:1012D0009F09061717072807390708F076CF80916E
:1012E000FF010E94830610928902109288021092D8
:1012F000DE01DF91CF911F910F91FF90EF90DF9072
:10130000CF9008959D9191938F5F75CF85EEB0CF6B
:101310008091000290910102A0910202B09103021B
:10132000892B8A2B8B2B09F4A9CF0E947101009184
:1013300000021091010220910202309103026C1907
:101340007D098E099F09061717072807390708F036
:1013500095CFC5CF089590E080E008950F931F9337
:10136000CF938C01C62F0E94C3086C2F6460C80104
:101370000E94C3086C2F6B7FC8010E94C30883ECD6
:1013800090E00197F1F7CF911F910F9108950F937E
:101390001F93CF93DF938C01D62FC42F607F642BD4
:1013A0000E94AE0980E1D89FB00111246C2BC801C6
:1013B000DF91CF911F910F910C94AE09CF93DF93E2
:1013C000CDB7DEB728970FB6F894DEBF0FBECDBFFE
:1013D00098E0E1E0F1E0DE01119601900D929A951E
:1013E000E1F79091A203981708F48FEF90E0880F2F
:1013F000991F21E030E02C0F3D1F820F931FFC014D
:101400006081606840E08AE993E028960FB6F8941E
:10141000DEBF0FBECDBFDF91CF910C94C70941E075
:101420000E94C70981E090E00895FB01019000202F
:10143000E9F73197AF01461B570BDC01ED91FC91A9
:101440000280F381E02D09948F929F92AF92BF9218
:101450000F931F93CF93DF93CDB7DEB7A1970FB64E
:10146000F894DEBF0FBECDBF19A2423008F44AE0A7
:101470008E010F5D1F4F842E912CB12CA12CA50144
:1014800094010E946D13E62FB901CA01EA3004F5F8
:10149000E05DD801EE938D01232B242B252B79F7CA
:1014A00090E080E0109729F0BD018AE993E00E9466
:1014B000150AA1960FB6F894DEBF0FBECDBFDF911F
:1014C000CF911F910F91BF90AF909F908F900895F3
:1014D000E95CDFCF4F925F926F927F928F929F92E3
:1014E000AF92BF92CF92DF92EF92FF920F931F9332
:1014F000CF936B017C01742EAC019B010E94D5152A
:1015000061E571E0811126C046015701E894B7F802
:101510002FEF3FEF4FE75FE7C501B4010E94D515FC
:1015200081110CC02FEF3FEF4FE75FE7C501B4011A
:101530000E940B1465E571E0181664F02FEF3FEF81
:101540004FE75FE4C701B6010E9463151816ACF4BB
:1015500069E571E08AE993E0CF911F910F91FF90C7
:10156000EF90DF90CF90BF90AF909F908F907F9043
:101570006F905F904F900C94150A2FEF3FEF4FE75D
:101580005FECC701B6010E940B1487FDE1CF20E09C
:1015900030E0A901C701B6010E940B1410E000E081
:1015A00087FF0CC041E06DE28AE993E00E94C70921
:1015B000F7FAF094F7F8F09401E010E0C0E060E092
:1015C00070E080E09FE37C1641F020E030E040E2F4
:1015D00051E40E941014CF5FF6CFA70196010E943C
:1015E0009F134B015C010E9482142B013C014AE0D5
:1015F0000E94240A080F191FCC23C9F1C301B201AC
:101600000E94B1149B01AC01C501B4010E949E135C
:101610004B015C0141E06EE28AE993E00E94C70958
:101620000F5F1F4FC15018F120E030E040E251E45D
:10163000C501B4010E9468152B013C010E9482146F
:101640004B01B12CA12C4AE0C501B4010E94240A2F
:10165000080F191FC501B4010E94B1149B01AC0110
:10166000C301B2010E949E134B015C01DBCFC80194
:10167000CF911F910F91FF90EF90DF90CF90BF908F
:10168000AF909F908F907F906F905F904F90089554
:1016900085ED8093BC008091000290910102A091A1
:1016A0000202B09103020796A11DB11D23E0B69579
:1016B000A795979587952A95D1F72091BC0024FD91
:1016C00003C0109249020895409100025091010216
:1016D0006091020270910302452B462B472B69F360
:1016E0000097A105B10541F02AE22A95F1F700C063
:1016F0000197A109B109E1CF8091FF010C94830604
:101700001F920F920FB60F9211242F933F938F9336
:101710009F93AF93BF938091A4029091A502A09153
:10172000A602B091A70230919F0223E0230F2D372C
:1017300058F50196A11DB11D20939F028093A4022C
:101740009093A502A093A602B093A7028091A00255
:101750009091A102A091A202B091A3020196A11DB5
:10176000B11D8093A0029093A102A093A202B09316
:10177000A302BF91AF919F918F913F912F910F90B5
:101780000FBE0F901F90189526E8230F0296A11DFB
:10179000B11DD2CF1F920F920FB60F9211242F932B
:1017A0003F934F935F936F937F938F939F93AF93E9
:1017B000BF93EF93FF9380917C0290917D02A09163
:1017C0007E02B0917F02892B8A2B8B2BD1F19091D5
:1017D0007B02E0917902F0917A02808189278083EF
:1017E00080917C0290917D02A0917E02B0917F0257
:1017F000181619061A061B069CF480917C0290911B
:101800007D02A0917E02B0917F020197A109B109EA
:1018100080937C0290937D02A0937E02B0937F021E
:10182000FF91EF91BF91AF919F918F917F916F91B8
:101830005F914F913F912F910F900FBE0F901F908E
:10184000189580910001E8E6F0E0E4919FEF909315
:101850000001E13051F030F0E23069F060E00E94C8
:10186000D400DECF10926E00F9CF90916F009D7F73
:1018700090936F00F3CF909170009D7F90937000D4
:1018800091E09093B0009091B100987F9460909314
:10189000B1001092B300E2CF1F920F920FB60F92D9
:1018A00011242F933F934F935F936F937F938F9365
:1018B0009F93AF93BF93EF93FF9388EA92E00E94C8
:1018C000AF05FF91EF91BF91AF919F918F917F9164
:1018D0006F915F914F913F912F910F900FBE0F909D
:1018E0001F9018951F920F920FB60F9211242F93ED
:1018F0008F939F93EF93FF93E091B802F091B90219
:101900008081E091BE02F091BF0282FD1BC09081F8
:101910008091C1028F5F8F732091C202821741F0C4
:10192000E091C102F0E0E855FD4F958F8093C10230
:10193000FF91EF919F918F912F910F900FBE0F907C
:101940001F9018958081F4CF1F920F920FB60F92BF
:1019500011242F933F934F935F936F937F938F93B4
:101960009F93AF93BF93EF93FF938091B900887FCC
:10197000803609F44AC0F0F5883209F4A7C018F59A
:10198000803109F49BC0B8F4882309F4F9C0883089
:1019900009F494C0FF91EF91BF91AF919F918F9106
:1019A0007F916F915F914F913F912F910F900FBE5B
:1019B0000F901F901895883109F488C0803251F734
:1019C0008093480214C0803409F49DC040F48033F1
:1019D000B9F38833F9F68093480285ECB0C08035BE
:1019E00009F485C0883509F496C0883499F60E94B8
:1019F000480BD0CF883909F48CC038F5883729F0E6
:101A000050F4883611F0803729F683E0809349023C
:101A10001092470257C0883809F47BC0803919F00A
:101A2000803809F0B7CF80914702803208F071C04A
:101A3000E091470281E08E0F809347028091BB00C6
:101A4000F0E0E95DFD4F80833DC0803B39F0E0F47C
:101A5000803A09F479C0883A09F09CCF84E08093F9
:101A600049021092260210922502E0918602F0911E
:101A7000870209958091250281110FC081E0809332
:101A800025021092050209C0803C09F4A6CF883CCB
:101A900009F4A3CF883B09F07DCFE091260281E0D5
:101AA0008E0F80932602F0E0EB5FFD4F80818093E4
:101AB000BB00909126028091250229C080916E0280
:101AC0008093BB0085EC8093BC0064CF90916D0245
:101AD00080916C02981758F5E0916D0281E08E0FAD
:101AE00080936D02F0E0E45BFD4F8081E9CFE091EF
:101AF0006D0281E08E0F80936D028091BB00F0E05B
:101B0000E45BFD4F808390916D0280916C02981789
:101B1000C8F285E8D8CFE0916D0281E08E0F809306
:101B20006D028091BB00F0E0E45BFD4F808380910B
:101B30004B0281115CCF81E080934A0284EA80935A
:101B4000BC001092490226CF85EC8093BC00109215
:101B5000490280914702803230F4E0914702F0E080
:101B6000E95DFD4F10826091470270E0E0918402D0
:101B7000F091850287E292E00995109247020ACF20
:101B80001092480234CF1F920F920FB60F92112479
:101B90002F933F934F935F936F937F938F939F9375
:101BA000AF93BF93CF93DF93EF93FF938091BD01EA
:101BB000C0917503D0E087FF24C010928500109279
:101BC00084008091BD018F5F8093BD018091BD0134
:101BD000082E000C990B8C179D0724F48091BD01F1
:101BE0008C30C4F1809184009091850004968034FB
:101BF0009C4908F47AC080918400909185000496F5
:101C000076C08091BD01082E000C990B8C179D07A2
:101C1000C4F6E091BD018E2FEE0F990BFC01EE0F83
:101C2000FF1FE80FF91FEF5AFC4F808186FFC9CFD5
:101C3000E091BD018E2FEE0F990BFC01EE0FFF1FFF
:101C4000E80FF91FEF5AFC4F808160E08F730E940C
:101C5000D400B7CF2091840030918500E091BD0180
:101C60008E2FEE0F990BFC01EE0FFF1FE80FF91FEF
:101C7000EF5AFC4F81819281820F931F90938900CC
:101C800080938800E091BD018E2FEE0F990BFC012F
:101C9000EE0FFF1FE80FF91FEF5AFC4F808186FF00
:101CA00011C0E091BD018E2FEE0F990BFC01EE0FDC
:101CB000FF1FE80FF91FEF5AFC4F808161E08F731F
:101CC0000E94D400FF91EF91DF91CF91BF91AF912E
:101CD0009F918F917F916F915F914F913F912F9144
:101CE0000F900FBE0F901F90189580E49CE9909381
:101CF0008900809388008FEF8093BD01E3CF1F920E
:101D00000F920FB60F9211242F933F934F935F932F
:101D10006F937F938F939F93AF93BF93EF93FF93B3
:101D2000E0918202F0918302309749F0A685B78551
:101D30008585968D91FF14C09C918923A1F4FF9114
:101D4000EF91BF91AF919F918F917F916F915F9133
:101D50004F913F912F910F900FBE0F901F901895AC
:101D60009C91892361F7A389B4899C918589809589
:101D700089238C93868997890197F1F7608D718DFE
:101D8000A685B785558538E020E0CB010197F1F7AE
:101D9000822F90E095958795282F4C91452309F047
:101DA0002068315091F7868D81FD209580918102C8
:101DB00090E001968F73992730918002381799F03F
:101DC000A0918102B0E0A358BE4F2C938093810272
:101DD000828D938D0197F1F7A389B4898C919589B0
:101DE000892B8C93ACCF868D8160868FF1CF10923A
:101DF000AB021092AA0288EE93E0A0E0B0E08093DC
:101E0000AC029093AD02A093AE02B093AF0223E177
:101E100031E03093A9022093A80225EC30E0309302
:101E2000B5022093B40224EC30E03093B702209343
:101E3000B60220EC30E03093B9022093B80221ECD6
:101E400030E03093BB022093BA0222EC30E03093B2
:101E5000BD022093BC0226EC30E03093BF022093F9
:101E6000BE021092C1021092C2021092C3021092DE
:101E7000C402109248031092470380934903909341
:101E80004A03A0934B03B0934C0325E231E0309317
:101E900046032093450323E02093AB032BE02093DC
:101EA000AC03E2EBF0E0E491E093AD03EEE9F0E0A7
:101EB000E491E093AE0340E85EE360E070E04093BD
:101EC000B3035093B4036093B5037093B6031092B9
:101ED0009D0310929C0329E431E030939B032093EF
:101EE0009A0327E220939E0320E12093A30322E09C
:101EF0002093A4031092A50310927E0310927D03F9
:101F000080937F0390938003A0938103B093820317
:101F100087E391E090937C0380937B03109292037C
:101F200010929103109294031092930310929603CF
:101F30001092950310929803109297036091990361
:101F40006E7F6D7F609399036695617081E068276D
:101F500085E00E94D40061E085E00E942001E4EB6E
:101F6000F0E0E491E0938B03E0EAF0E0E491F0E04C
:101F7000EE0FFF1FEF56FF4F8591949190938D03C5
:101F800080938C0360E084E00E942001809199039B
:101F900081FD04C061E084E00E94D40084E080936D
:101FA0008703E3EBF0E0E491E0938803EFE9F0E0EE
:101FB000E491F0E0EE0FFF1FE957FF4F85919491F8
:101FC00090938A0380938903809175038C30B8F4D1
:101FD00091E0980F909375038093780390E0FC0153
:101FE000EE0FFF1FE80FF91FEF5AFC4F88EB9BE045
:101FF00092838183109277031092760308958FEF76
:1020000080937803F7CF789484B5826084BD84B5DB
:10201000816084BD85B5826085BD85B5816085BDE3
:1020200080916E00816080936E001092810080919B
:102030008100826080938100809181008160809323
:102040008100809180008160809380008091B10048
:1020500084608093B1008091B00081608093B00073
:1020600080917A00846080937A0080917A00826007
:1020700080937A0080917A00816080937A008091C9
:102080007A00806880937A001092C10010929603C3
:10209000109295031092940310929303109292035E
:1020A000109291038DE991E09093980380939703A8
:1020B00090918703963108F047C02DEB30E03093C4
:1020C0009203209391032BE931E030939403209302
:1020D00093032CE231E030939603209395032091F3
:1020E000680084E0983048F031E09E3008F430E039
:1020F00081E001C0880F3A95EAF7822B809368004F
:102100002DE630E0983050F02BE630E09E3030F095
:102110002CE630E0963110F030E020E030938F0371
:1021200020938E03292F30E0983008F045C181E0DC
:1021300001C0880F9A95EAF78093900380919703E6
:10214000909198030197F1F78091950390919603F0
:10215000892B49F1E0918202F091830223E0EB3771
:10216000F20709F1309739F0A389B4899C918589E8
:10217000809589238C93809199038E7F8093990316
:1021800010928102109280028BE793E09093830279
:1021900080938202E0918E03F0918F038081909171
:1021A0009003892B808362E08091AB030E94200121
:1021B00080E398EFAFEFBFEF8093AF039093B0034E
:1021C000A093B103B093B20310928B0210928A02D3
:1021D00010928902109288020E94650689EC92E0B2
:1021E00090938702809386028AEC92E09093850216
:1021F0008093840210929F038091A403823018F090
:1022000098E090939F038093A20362E370E080E0E4
:1022100090E00E9496016091A5038AE993E00E94F4
:10222000C30868EE73E080E090E00E94960160E3EE
:102230008AE993E00E94AE09CBE4D6E4CE0101978F
:10224000F1F760E38AE993E00E94AE092197F1F784
:1022500060E38AE993E00E94AE0983E592E001978A
:10226000F1F760E28AE993E00E94AE0960919F0372
:10227000606240E08AE993E00E94C70984E08093AD
:10228000A00340E06CE08AE993E00E94C70940E0C7
:1022900061E08AE993E00E94C709CBE3DFE1CE0168
:1022A0000197F1F782E08093A10340E066E08AE9BC
:1022B00093E00E94C70940E062E08AE993E00E944F
:1022C000C7092197F1F7C7E061E08C2F0E94200138
:1022D000CF5FCE30C9F709E011E02BE3E22E2FE10A
:1022E000F22EC0E0D0E08BE793E00E949E07892B9E
:1022F00049F18BE793E00E94B407D82E88EA92E078
:102300000E946D05C82E6DE571E088EA92E00E949A
:10231000150A6C2D88EA92E00E94D10568E671E00A
:1023200088EA92E00E94150A82E7D8120BC08091D9
:10233000980281114EC061E088E00E94D40081E0E3
:10234000809398022FB7F8948091A4029091A502EF
:10235000A091A602B091A7022FBF40919402509184
:10236000950260919602709197025C016D01A41A2A
:10237000B50AC60AD70AB601A501403D5740610516
:10238000710508F4AFC08093940290939502A093D6
:102390009602B09397020E94C801882341F0809171
:1023A000AC038B30E9F018F085518230D0F160E059
:1023B00070E080EC9FE71BC09E3040F4285031094C
:1023C00081E001C0880F2A95EAF7B6CE2E50310978
:1023D000F7CF60E088E00E94D40010929802B2CF5C
:1023E0006091A80370E090E080E00E94B1146093D7
:1023F00090027093910280939202909393020E94B4
:10240000C801882349F08091AC038B3081F120F022
:102410008551823008F4BBC060E070E080EC9FE73B
:102420002DC0D090A8036D2D6F7770E090E080E014
:102430000E94B31420E030E040E853E40E946815A5
:102440004B015C016091A90370E090E080E00E9484
:10245000B314A50194010E949F132DEC3CEC4CECAD
:102460005DE30E946815D7FEC2CF9058C0CF60913F
:10247000A60370E090E080E00E94B11460938C02AB
:1024800070938D0280938E0290938F0280917603D9
:10249000882341F180E00E94DE096BE671E08AE961
:1024A00093E00E94150A60919002709191028091D0
:1024B00092029091930242E00E946A0A81E00E9497
:1024C000DE0963E771E08AE993E00E94150A6091F2
:1024D0008C0270918D0280918E0290918F0242E069
:1024E0000E946A0A8EE00E945C01853FE1E09E073F
:1024F0000CF46EC080917703811121C099E0C92E40
:1025000091E0D92EF601619171916F0128EC30E0D4
:1025100040E050E082E00E94CB0268EC70E080E096
:1025200090E00E949601FFE0CF16F1E0DF0651F740
:1025300090E080E00E94D50781E0809377038FE0F0
:102540000E945C01843691050CF06AC0809176038C
:10255000882391F01092760340E061E08AE993E0ED
:102560000E94C709C7010197F1F71092A50360E027
:102570008AE993E00E94C308209709F4B4CE0E9430
:102580009B05882309F4AFCE0E940000ACCE609179
:10259000A60370E090E080E00E94B11420E030E0FB
:1025A00040E853E40E9468154B015C016091A70369
:1025B00070E090E080E00E94B314A50194010E94B5
:1025C0009F132DEC3CEC4CEC5DE30E94681556CF5C
:1025D000843F914009F4B3CF80917703882309F4B5
:1025E000AECF81E1C82E81E0D82EF60172916291C2
:1025F0006F0128EC30E040E050E082E00E94CB0226
:1026000068EC70E080E090E00E9496010C151D05DA
:1026100061F784EB90E00E94D507109277038FCF8B
:10262000853893400CF4A8CF809176038111A4CF14
:1026300081E08093760388E08093A50398CF87E3B9
:1026400091E090937C0380937B0380918202909130
:1026500083028B57934071F4E0918E03F0918F03C6
:1026600090818091900380958923808310928302CA
:10267000109282020895052E97FB1EF400940E948A
:10268000521357FD07D00E946D1307FC03D04EF480
:102690000C94521350954095309521953F4F4F4FD4
:1026A0005F4F089590958095709561957F4F8F4FFE
:1026B0009F4F08950E948F13A59F900DB49F900D7A
:1026C000A49F800D911D11240895B7FF0C945A13F7
:1026D0000E945A13821B930B0895A1E21A2EAA1B83
:1026E000BB1BFD010DC0AA1FBB1FEE1FFF1FA217C2
:1026F000B307E407F50720F0A21BB30BE40BF50BBF
:10270000661F771F881F991F1A9469F76095709547
:10271000809590959B01AC01BD01CF010895A29FCA
:10272000B001B39FC001A39F700D811D1124911DA5
:10273000B29F700D811D1124911D08955058BB2723
:10274000AA270E94B6130C9429150E941B1538F075
:102750000E94221520F039F49F3F19F426F40C94BE
:1027600018150EF4E095E7FB0C941215E92F0E9462
:102770003A1558F3BA17620773078407950720F0D4
:1027800079F4A6F50C945C150EF4E0950B2EBA2F97
:10279000A02D0B01B90190010C01CA01A001112467
:1027A000FF27591B99F0593F50F4503E68F11A1613
:1027B000F040A22F232F342F4427585FF3CF4695A4
:1027C00037952795A795F0405395C9F77EF41F16C6
:1027D000BA0B620B730B840BBAF09150A1F0FF0F90
:1027E000BB1F661F771F881FC2F70EC0BA0F621F7C
:1027F000731F841F48F4879577956795B795F7956C
:102800009E3F08F0B0CF9395880F08F09927EE0F00
:102810009795879508950E94EE1408F481E0089535
:102820000E9424140C9429150E94221558F00E942D
:102830001B1540F029F45F3F29F00C94121551113B
:102840000C945D150C9418150E943A1568F39923A1
:10285000B1F3552391F3951B550BBB27AA2762179C
:102860007307840738F09F5F5F4F220F331F441FA9
:10287000AA1FA9F335D00E2E3AF0E0E832D09150DD
:102880005040E695001CCAF72BD0FE2F29D0660FCA
:10289000771F881FBB1F261737074807AB07B0E80D
:1028A00009F0BB0B802DBF01FF2793585F4F3AF013
:1028B0009E3F510578F00C9412150C945D155F3F06
:1028C000E4F3983ED4F3869577956795B795F79599
:1028D0009F5FC9F7880F911D9695879597F9089581
:1028E000E1E0660F771F881FBB1F6217730784071D
:1028F000BA0720F0621B730B840BBA0BEE1F88F72C
:10290000E09508950E94421588F09F5798F0B92FDE
:102910009927B751B0F0E1F0660F771F881F991F14
:102920001AF0BA95C9F714C0B13091F00E945C1545
:10293000B1E008950C945C15672F782F8827B85F55
:1029400039F0B93FCCF3869577956795B395D9F76C
:102950003EF490958095709561957F4F8F4F9F4F76
:102960000895E89409C097FB3EF490958095709582
:1029700061957F4F8F4F9F4F9923A9F0F92F96E9CB
:10298000BB279395F695879577956795B795F11140
:10299000F8CFFAF4BB0F11F460FF1BC06F5F7F4FDD
:1029A0008F4F9F4F16C0882311F096E911C07723EF
:1029B00021F09EE8872F762F05C0662371F096E8F8
:1029C000862F70E060E02AF09A95660F771F881FC7
:1029D000DAF7880F9695879597F90895990F00086B
:1029E000550FAA0BE0E8FEEF16161706E807F907E1
:1029F000C0F012161306E407F50798F0621B730B7C
:102A0000840B950B39F40A2661F0232B242B252BFC
:102A100021F408950A2609F4A140A6958FEF811D9F
:102A2000811D089597F99F6780E870E060E0089540
:102A30009FEF80EC089500240A94161617061806D6
:102A40000906089500240A941216130614060506B2
:102A50000895092E0394000C11F4882352F0BB0F43
:102A600040F4BF2B11F460FF04C06F5F7F4F8F4FA6
:102A70009F4F089557FD9058440F551F59F05F3FE1
:102A800071F04795880F97FB991F61F09F3F79F090
:102A900087950895121613061406551FF2CF469512
:102AA000F1DF08C0161617061806991FF1CF869594
:102AB0007105610508940895E894BB276627772778
:102AC000CB0197F908950E94EE1408F48FEF089552
:102AD0000E947B150C9429150E941B1538F00E944A
:102AE000221520F0952311F00C9412150C94181552
:102AF00011240C945D150E943A1570F3959FC1F353
:102B0000950F50E0551F629FF001729FBB27F00D9B
:102B1000B11D639FAA27F00DB11DAA1F649F6627F0
:102B2000B00DA11D661F829F2227B00DA11D621F3F
:102B3000739FB00DA11D621F839FA00D611D221FF9
:102B4000749F3327A00D611D231F849F600D211DDD
:102B5000822F762F6A2F11249F5750409AF0F1F060
:102B600088234AF0EE0FFF1FBB1F661F771F881FC9
:102B700091505040A9F79E3F510580F00C941215DA
:102B80000C945D155F3FE4F3983ED4F386957795FA
:102B90006795B795F795E7959F5FC1F7FE2B880F6F
:102BA000911D9695879597F908950E94EE14880BCC
:102BB000990B0895991B79E004C0991F961708F0A6
:102BC000961B881F7A95C9F780950895EE0FFF1F11
:102BD0000590F491E02D099410E0C3E6D0E004C024
:102BE000FE010E94E6152196C436D107C9F7F89474
:022BF000FFCF15
:102BF200FF00004000140054000B0216042D0800D0
:102C0200000000D10531055E051E068F056D0581A8
:102C12000500000000FB06CE06AB09A406C706B4F9
:102C220006A5060000000042073105AB09A4069E76
:102C320007B4072A07000000000F0A3105AB09AAF2
:102C4200096E616E00696E66006F7666005265639A
:102C520065697665643A20000D0A0054656D70203E
:0C2C62003A200068756D69203A200000DF
:00000001FF
