:100000000C9464000C948C000C948C000C94050FE0
:100010000C94050F0C94050F0C948C000C94500C50
:100020000C948C000C948C000C948C000C94490E55
:100030000C948C000C948C000C948C000C948C0010
:100040000C94060C0C948C000C94F80C0C94D20CB0
:100050000C948C000C948C000C948C000C948C00F0
:100060000C942A0D0C948C00020000000024002740
:10007000002A00000000080002010000030407003D
:1000800000000000000000000000002300260029FE
:100090000000000000250028002B000404040404D4
:1000A0000404040202020202020303030303030125
:1000B00002040810204080010204081020010204FC
:1000C000081020007D0FF61311241FBECFEFD8E0DB
:1000D000DEBFCDBF11E0A0E0B1E0ECEBFCE202C07E
:1000E00005900D92AC3EB107D9F724E0ACEEB1E03B
:1000F00001C01D92A832B207E1F710E0C3E6D0E0DC
:1001000004C02197FE010E944B16C236D107C9F7E1
:100110000E9489100C9451160C9400008F929F92AB
:10012000AF92BF92CF92DF92EF92FF92CF93DF9385
:10013000A0911D0430E081113A2F80911E0490E0BF
:10014000880F991FAC0149575F4FC0902304D0908E
:100150002404E0902504F090260460E070E0CB01D8
:10016000FA01C591D49128812A2323130FC04B0192
:100170005C012FEF821A920AA20AB20A6C157D0561
:100180008E059F0570F060E070E0CB01DF91CF91AC
:10019000FF90EF90DF90CF90BF90AF909F908F90A7
:1001A0000895C501B401DCCF833081F028F481309B
:1001B00099F08230A9F008958730A9F08830C9F00D
:1001C0008430B1F4809180008F7D03C080918000E5
:1001D0008F7780938000089584B58F7784BD0895CC
:1001E00084B58F7DFBCF8091B0008F778093B00076
:1001F00008958091B0008F7DF9CFCF93DF93282FA2
:1002000030E0F901ED58FF4F8491F901E155FF4FBE
:10021000D491F901E556FF4FC491CC23A1F081118F
:100220000E94D400EC2FF0E0EE0FFF1FE957FF4FC4
:10023000A591B491EC91ED2381E090E009F480E088
:10024000DF91CF91089580E090E0FACF1F93CF9394
:10025000DF93282F30E0F901ED58FF4F8491F90129
:10026000E155FF4FD491F901E556FF4FC491CC23DE
:10027000A9F0162F81110E94D400EC2FF0E0EE0FB0
:10028000FF1FEF56FF4FA591B4918FB7F894EC91F3
:10029000111108C0D095DE23DC938FBFDF91CF9181
:1002A0001F910895DE2BF8CFCF93DF9390E0FC01F0
:1002B000E155FF4F249185569F4FFC01849188237F
:1002C000C9F090E0880F991FFC01E759FF4FA591F5
:1002D000B491FC01EF56FF4FC591D49161110DC04F
:1002E0009FB7F8948C91209582238C938881282342
:1002F00028839FBFDF91CF910895623051F49FB75B
:10030000F8943C91822F809583238C93E8812E2B47
:10031000EFCF8FB7F894EC912E2B2C938FBFEACFB1
:100320008E3008F08E508770806480937C008091BE
:100330007A00806480937A0080917A0086FDFCCFF9
:10034000809178009091790008953FB7F89480915A
:10035000100390911103A0911203B091130326B5DD
:10036000A89B05C02F3F19F00196A11DB11D3FBFED
:10037000BA2FA92F982F8827BC01CD01620F711DBC
:10038000811D911D42E0660F771F881F991F4A95B6
:10039000D1F708958F929F92AF92BF92CF92DF9242
:1003A000EF92FF924B015C010E94A5016B017C0161
:1003B0000E94A5016C197D098E099F09683E734052
:1003C00081059105A8F321E0821A9108A108B108DE
:1003D00088EEC80E83E0D81EE11CF11C8114910444
:1003E000A104B10429F7FF90EF90DF90CF90BF9068
:1003F000AF909F908F900895CF92DF92EF92FF92EF
:100400000F931F93CF93DF93CDB7DEB7C054D14086
:100410000FB6F894DEBF0FBECDBF2FB7F894809112
:10042000140390911503A0911603B09117032FBFE9
:1004300040911F0450912004609121047091220486
:100440008C019D01041B150B260B370BB901A8016C
:10045000403D57406105710590F480912704C05CD0
:10046000DE4F0FB6F894DEBF0FBECDBFDF91CF9148
:100470001F910F91FF90EF90DF90CF9008958093A0
:100480001F0490932004A0932104B093220410929F
:100490001A04109219041092180410921704109262
:1004A000160461E080911B040E9426016AEF70E04F
:1004B00080E090E00E94CA0161E080911B040E94EC
:1004C000540160E080911B040E94260164E170E009
:1004D00080E090E00E94CA01F89461E080911B04E2
:1004E0000E9426018BE990E00197F1F762E080918C
:1004F0001B040E94540183E290E00197F1F780E031
:100500000E948E00672B682B692B29F41092270418
:10051000789480E0A4CF81E00E948E00672B682B46
:10052000692BA1F38E010F5F1F4F6E012FEBC21AD3
:100530002EEFD20A780180E00E948E00F7016083DE
:1005400071838283938381E00E948E00F70164832C
:10055000758386839783F8E0EF0EF11CEC14FD049D
:1005600051F7789430E020E0F801C080D180E2803B
:10057000F3804481558166817781C114D104E104FF
:10058000F10429F0411551056105710519F4109226
:100590002704BFCFF90183E0F595E7958A95E1F748
:1005A000EA5EFB4F8081880FC416D506E606F70683
:1005B00010F180832F5F3F4F085F1F4F28323105B6
:1005C00099F640911A042091160480911704280F7F
:1005D0003327331F80911804280F311D809119048F
:1005E000820F932F911D99274817190681F681E0F4
:1005F0008093270434CF8160DCCF089508954F9213
:100600005F926F927F928F929F92AF92BF92CF92A2
:10061000DF92EF92FF920F931F93CF93DF9300D05F
:1006200000D01F92CDB7DEB78B0129013A0190911E
:1006300000018917C9F09F3F09F47EC00F900F9009
:100640000F900F900F90DF91CF911F910F91FF901E
:10065000EF90DF90CF90BF90AF909F908F907F9062
:100660006F905F904F900895E8E6F0E094919D833D
:1006700097FDE4CF61E00E9454018D81882321F031
:100680009D81923009F04AC14801B12CA12C60E053
:1006900072E18AE790E0A50198010E941214298373
:1006A0003A834B835C8369017A0181E0C81AD108DF
:1006B000E108F1089FEFC916D104E104F10409F043
:1006C0000CF401C160E472E48FE090E0A5019801B0
:1006D0000E94121469017A0181E0C81AD108E10868
:1006E000F1089D81923009F0A2C08FEFC816D104A5
:1006F000E104F10409F00CF4E6C160E970ED83E077
:1007000090E0A50198010E94121469017A0191E01C
:10071000C91AD108E108F1088FEFC816D104E10425
:10072000F10411F00CF07FC183E09091B100987F4B
:10073000892B8093B100CFC080930001E8E6F0E000
:1007400094919D839F3F09F479CF913041F150F00E
:10075000923009F446C09D8197FD70CF61E00E9400
:1007600054018ECF14BC15BC94B5926094BD95B560
:10077000916095BD282F30E0F901E556FF4FE491D7
:10078000F0E0EE0FFF1FEF56FF4F45915491F90136
:10079000E155FF4FE491E093E0021D826BCF109290
:1007A0008000109281009091810098609093810068
:1007B00090918100916090938100282F30E0F901A1
:1007C000E556FF4FE491F0E0EE0FFF1FEF56FF4FAD
:1007D00045915491F901E155FF4FE491E093DF0217
:1007E00049CF1092B0001092B1009091B000926089
:1007F0009093B0009091B10091609093B100282F38
:1008000030E0F901E556FF4FE491F0E0EE0FFF1FF5
:10081000EF56FF4F459154915093EA024093E902FD
:10082000F901E155FF4FE491E093EB0223CF9FEFF5
:10083000C916D104E104F10409F00CF46DC068E4B8
:1008400078EE81E090E0A50198010E941214690100
:100850007A0181E0C81AD108E108F1089D81992345
:1008600009F4FAC08FEFC816D104E104F10411F0C5
:100870000CF0FBC0EFC064E274EF80E090E0A501F3
:1008800094010E94121469017A0181E0C81AD1080A
:10089000E108F10885E09FEFC916D104E104F104F5
:1008A00009F008F442CF62E17AE780E090E0A50128
:1008B00094010E94121469017A0181E0C81AD108DA
:1008C000E108F108E5C081E09D8191112ECF95B539
:1008D000987F892B85BD2FEF3FEFA901411451046B
:1008E0006104710409F043C09D81913009F45EC038
:1008F000923009F46DC09111A1CEC7BC2093E502DE
:100900003093E6024093E7025093E80280916E0034
:10091000826080936E0092CE82E0D6CFB12CA12C63
:1009200060E072E18AE790E0A50198010E9412144C
:1009300069017A0181E0C81AD108E108F108C114FF
:10094000D10491E0E906F10404F591E08D81813054
:1009500011F680918100887F892B809381002FEF91
:100960003FEFA9014114510461047104F9F0D80169
:10097000AA0FBB1FA30192010E94311428EE33E09D
:1009800040E050E00E944414AFCF68E478EE81E08C
:1009900090E0A50198010E94121469017A0181E09A
:1009A000C81AD108E108F10893E0D0CFD0928900AD
:1009B000C09288002093E1023093E2024093E30268
:1009C0005093E40280916F00826080936F0036CE76
:1009D000C092B3002093EC023093ED024093EE02FC
:1009E0005093EF028091700082608093700026CE59
:1009F00084E09FEFC916D104E104F10409F008F482
:100A000066CFC980DA80EB80FC808AE0F594E794B9
:100A1000D794C7948A95D1F781E0C81AD108E10824
:100A2000F10885E054CF68E478EE81E090E0A5011C
:100A300098010E94121469017A0181E0C81AD10854
:100A4000E108F1089FEFC916D104E104F10411F0A7
:100A50000CF011CF84E069CE83E09FEFC916D1047A
:100A6000E104F10409F00CF432CF62E17AE780E0AE
:100A700090E0A50194010E94121469017A0181E0BD
:100A8000C81AD108E108F1089D81992309F4B0CF73
:100A900086E09FEFC916D104E104F10409F008F4DF
:100AA00044CEC980DA80EB80FC809AE0F594E7942C
:100AB000D794C7949A95D1F781E0C81AD108E10874
:100AC000F10887E032CE82E030CEAF92BF92CF9273
:100AD000DF92EF92FF920F931F93CF93DF936C01FE
:100AE0007B018B01040F151FEB015E01AE18BF08DF
:100AF000C017D10759F06991D601ED91FC91019091
:100B0000F081E02DC6010995892B79F7C501DF91A8
:100B1000CF911F910F91FF90EF90DF90CF90BF90FA
:100B2000AF900895FC01538D448D252F30E0842F24
:100B300090E0821B930B541710F0CF960895019705
:100B40000895FC01918D828D981761F0A28DAE0FF2
:100B5000BF2FB11D5D968C91928D9F5F9F73928F79
:100B600090E008958FEF9FEF0895FC01918D828DA5
:100B7000981731F0828DE80FF11D858D90E0089572
:100B80008FEF9FEF0895FC01918D228D892F90E0CA
:100B9000805C9F4F821B91098F739927089588E18C
:100BA00093E00E94C30521E0892B09F420E0822F05
:100BB000089580E090E0892B29F00E94CF058111F3
:100BC0000C9400000895FC01A48DA80FB92FB11D4D
:100BD000A35ABF4F2C91848D90E001968F73992773
:100BE000848FA689B7892C93A089B1898C91837051
:100BF00080648C93938D848D981306C00288F3894A
:100C0000E02D80818F7D80830895EF92FF920F9376
:100C10001F93CF93DF93EC0181E0888F9B8D8C8DA8
:100C200098131AC0E889F989808185FF15C09FB79C
:100C3000F894EE89FF896083E889F989808183705F
:100C4000806480839FBF81E090E0DF91CF911F910E
:100C50000F91FF90EF900895F62E0B8D10E00F5F2F
:100C60001F4F0F731127E02E8C8D8E110CC00FB605
:100C700007FCFACFE889F989808185FFF5CFCE019D
:100C80000E94E305F1CFEB8DEC0FFD2FF11DE35A30
:100C9000FF4FF0829FB7F8940B8FEA89FB89808120
:100CA0008062CFCFCF93DF93EC01888D8823B9F09A
:100CB000AA89BB89E889F9898C9185FD03C0808167
:100CC00086FD0DC00FB607FCF7CF8C9185FFF2CFE4
:100CD000808185FFEDCFCE010E94E305E9CFDF9152
:100CE000CF91089520919502260F3327331F21328B
:100CF0003105ECF42091B902FC0190E080E0243051
:100D000069F082E00895A09195022191AC014B58C1
:100D10005D4FA40FB52FB11D2C930196861798F344
:100D200080919502680F6093950280E0089581E0BC
:100D300008951092B90281E08093BB021092BA022A
:100D400061E082E10E94260161E083E10E942601C8
:100D5000E9EBF0E080818E7F808380818D7F8083CE
:100D600088E48093B80085E48093BC000895CF9315
:100D7000DF9391E0909374028823B9F0C091B8009A
:100D8000D091BA008091BC008A7B8093BC0060E067
:100D900082E10E94260160E083E10E9426010E9418
:100DA0009906D093BA00C093B800DF91CF9108950F
:100DB0000895E091FB028091FA02E81730F4F0E028
:100DC000E15BFD4F808190E008958FEF9FEF0895E4
:100DD0009091FB028091FA022FEF3FEF981748F4B1
:100DE000E92FF0E0E15BFD4F208130E09F5F9093C1
:100DF000FB02C90108958091FA029091FB02891BC0
:100E0000990B0895CF92DF92EF92FF920F931F9369
:100E1000CF93DF937C01CB018A0120914E022223E4
:100E200089F0EB016B01C40ED51ECC15DD0569F010
:100E30006991D701ED91FC910190F081E02DC701FE
:100E40000995F3CF642F0E947206C801DF91CF91FC
:100E50001F910F91FF90EF90DF90CF900895CF9367
:100E6000DF931F92CDB7DEB7698320914E02222314
:100E7000F9F02091F802203258F021E030E0FC0136
:100E80003383228390E080E00F90DF91CF9108952B
:100E90008091F902E82FF0E0E25DFD4F99819083A7
:100EA0008F5F8093F9028093F80281E090E0ECCFAD
:100EB00061E0CE0101960E947206F7CF2091F20206
:100EC0003091F3022817390771F49091F002809164
:100ED000F102981741F0E091F002F0E0E351FE4F8B
:100EE000808190E008958FEF9FEF0895EF92FF9239
:100EF0000F931F93CF93DF93DC015C96ED90FC90F2
:100F00005D97E114F10479F481E090E013969C93ED
:100F10008E93129790E080E0DF91CF911F910F9117
:100F2000FF90EF9008955196ED91FC915297509655
:100F30008C915097982F90950FB75E962C915E9755
:100F4000122F127021FD6095F8942081112319F160
:100F5000282B2083E7012197F1F728E0462F50E066
:100F6000308160FF1AC0382B3083E7012197F1F7F9
:100F7000BA0175956795215089F7112381F0808119
:100F8000892380830FBF5C968D919C910197F1F727
:100F900081E090E0C1CF2923DCCF3923E5CF9081D8
:100FA000892BEFCF2091F2023091F30228173907F5
:100FB00061F48091F1022091F00290E0805C9F4FFB
:100FC000821B91098F739927089590E080E008951E
:100FD0002091F2023091F30228173907B9F4909169
:100FE000F0028091F102981789F0E091F002F0E0B0
:100FF000E351FE4F80812091F00230E02F5F3F4FA0
:101000002F7333272093F00290E008958FEF9FEF26
:101010000895CF92DF92EF92FF921F93CF93DF93C9
:10102000EC018091E8038C3008F051C061E086E06B
:101030000E9454018091E803282F30E0F901EE0F5F
:10104000FF1FE20FF31FEF53FC4F9081907C9660DF
:1010500090831092E9031092EA032CE0622F0E9421
:101060003F16829FB001112430E020E0AB01420F17
:10107000531FFA01EE0FFF1FE40FF51FEF53FC4F54
:10108000908196FD16C02F5F3F4F2C30310571F7D0
:1010900081110FC01092800082E080938100109235
:1010A000850010928400B19A80916F0082608093D5
:1010B0006F00E091E8038E2F90E0FC01EE0FFF1F20
:1010C000E80FF91FEF53FC4F8081806480831091FB
:1010D000E803C03282E0D807E4F58091E903E8E84C
:1010E000CE2ED12CC81AD10887FDD394CC0CDD1C90
:1010F000CC0CDD1C0D2C000CEE08FF088091EA03DF
:1011000028E532E0281B310987FD3395220F331F74
:10111000220F331F032E000C440B550B2C193D09D5
:101120004E095F09DE01C53BD10514F0A4EBB0E028
:10113000B7FF02C0B0E0A0E00E943C1424EB30E016
:1011400040E050E00E941214C20ED31EE41EF51EB1
:10115000E6011C3080F52091E90388E890E0821BCD
:10116000910927FD9395880F991F880F991FC8171C
:10117000D90784F02091EA0388E592E0821B910967
:1011800027FD9395880F991F880F991FC817D907B6
:101190000CF4CE010297880F991F4FB7F894212FB6
:1011A00030E0F901EE0FFF1FE20FF31FEF53FC4F8A
:1011B000928381834FBF6CE271E080E090E00E94F7
:1011C000CA01E091E8038E2F90E0FC01EE0FFF1FB3
:1011D000E80FF91FEF53FC4F80818F7B8083DF91F5
:1011E000CF911F91FF90EF90DF90CF900895CF9314
:1011F000DF93EB019881911108C061E00E94260104
:1012000081E08883DF91CF91089560E00E942601FC
:101210001882F8CFCF92DF92EF92FF920F931F9335
:10122000CF93DF93FC01C48121E020934E02C09351
:10123000EC011092F9021092F8028385682B85EB7D
:1012400093E00E942F07D091F802D13208F092C0AB
:101250000E94A5016B017C018091B902811165C0DA
:1012600082E08093B90281E08093BB028FEF80938C
:10127000B8021092DD02D093DC02AEE2B2E0ECEBF9
:10128000F2E080E0D81385C01092DE028091DE0289
:10129000CC0FC82BC093DE028091BA02813009F0D6
:1012A0007CC01092BA020E94A5016B017C01809162
:1012B000DE028093BB008091700290917102A09138
:1012C0007202B0917302892B8A2B8B2B99F00E94AA
:1012D000A50100917002109171022091720230916B
:1012E00073026C197D098E099F09061717072807D5
:1012F0003907E0F18091BC0083FDD9CF85EC809364
:10130000BC000E94A5016B017C018091B902823072
:1013100009F445C08091B8028F3F61F18091B80215
:10132000803241F18091B80225C080917002909185
:101330007102A0917202B0917302892B8A2B8B2BC0
:1013400009F48ACF0E94A5010091700210917102E8
:1013500020917202309173026C197D098E099F09E8
:10136000061717072807390708F076CF80916F0214
:101370000E94B7061092F9021092F80210924E02E3
:10138000DF91CF911F910F91FF90EF90DF90CF9061
:1013900008959D9191938F5F75CF85EEB0CF809129
:1013A000700290917102A0917202B0917302892B28
:1013B0008A2B8B2B09F4A9CF0E94A5010091700202
:1013C0001091710220917202309173026C197D09A3
:1013D0008E099F09061717072807390708F095CFC8
:1013E000C5CF089590E080E008950F931F93CF93A9
:1013F0008C01C62F0E940A096C2F6460C8010E94EC
:101400000A096C2F6B7FC8010E940A0983EC90E0E7
:101410000197F1F7CF911F910F9108950F931F93AB
:10142000CF93DF938C01D62FC42F607F642B0E9453
:10143000F50980E1D89FB00111246C2BC801DF9120
:10144000CF911F910F910C94F509CF93DF93CDB7F6
:10145000DEB728970FB6F894DEBF0FBECDBF98E079
:10146000E1E0F1E0DE01119601900D929A95E1F72D
:1014700090911204981708F48FEF90E0880F991F4D
:1014800021E030E02C0F3D1F820F931FFC01608193
:10149000606840E08AE094E028960FB6F894DEBFDA
:1014A0000FBECDBFDF91CF910C940E0A41E00E9498
:1014B0000E0A81E090E00895FB0101900020E9F719
:1014C0003197AF01461B570BDC01ED91FC91028077
:1014D000F381E02D09948F929F92AF92BF92EF9289
:1014E000FF920F931F93CF93DF93CDB7DEB7A197F2
:1014F0000FB6F894DEBF0FBECDBF7C01FA01CB0161
:1015000019A2223008F42AE08E010F5D1F4F822EAF
:10151000912CB12CA12CBF01A50194010E9444146F
:10152000F901CA016A300CF5605DD8016E938D0136
:10153000232B242B252B79F790E080E0109721F0C6
:10154000BD01C7010E945C0AA1960FB6F894DEBFE8
:101550000FBECDBFDF91CF911F910F91FF90EF9004
:10156000BF90AF909F908F900895695CDECF4F92AF
:101570005F926F927F928F929F92AF92BF92CF9223
:10158000DF92EF92FF92CF93DF936B017C01AC016E
:101590009B010E943A1661E571E0811126C0460167
:1015A0005701E894B7F82FEF3FEF4FE75FE7C5012A
:1015B000B4010E943A1681110CC02FEF3FEF4FE7A4
:1015C0005FE7C501B4010E94E21465E571E01816F9
:1015D00064F02FEF3FEF4FE75FE4C701B6010E94D1
:1015E000C8151816A4F469E571E08AE094E0DF916B
:1015F000CF91FF90EF90DF90CF90BF90AF909F90F2
:101600008F907F906F905F904F900C945C0A2FEFBB
:101610003FEF4FE75FECC701B6010E94E21487FD80
:10162000E2CF20E030E0A901C701B6010E94E21438
:10163000D0E0C0E087FF0CC041E06DE28AE094E0BA
:101640000E940E0AF7FAF094F7F8F094C1E0D0E0A7
:101650002AE037ED43EA5BE3C701B6010E94761446
:101660004B015C010E94E7146B017C010E9416157E
:101670009B01AC01C501B4010E9475144B015C01D2
:101680002AE0B701A6018AE094E00E946B0A7C017F
:10169000EC0EFD1E41E06EE28AE094E00E940E0A2C
:1016A0008FEFE81AF80A20E030E040E251E4C5018B
:1016B000B4010E94CD152B013C010E94E7144B019F
:1016C000B12CA12C2AE0B501A4018AE094E00E948B
:1016D0006B0AE80EF91EC501B4010E9416159B01A4
:1016E000AC01C301B2010E94751420E030E040E279
:1016F00051E40E94CD150E94E714AB0170E060E058
:101700002AE08AE094E00E946B0A8E0D9F1DDF9113
:10171000CF91FF90EF90DF90CF90BF90AF909F90D0
:101720008F907F906F905F904F900895CF92DF924F
:10173000EF92FF92CF93DF936C01990FEE08FF08B1
:10174000F7FE23C06DE28BEE93E00E947607EC017A
:1017500044275527BA014C195D096E097F092AE013
:101760008BEE93E00E946B0AC80FD91F6DE571E004
:101770008BEE93E00E945C0A8C0F9D1FDF91CF914E
:10178000FF90EF90DF90CF9008952AE0B701A60177
:101790008BEE93E00E946B0AEC01E8CF85ED80931D
:1017A000BC008091700290917102A0917202B09180
:1017B00073020796A11DB11D23E0B695A7959795D5
:1017C00087952A95D1F72091BC0024FD03C0109283
:1017D000B9020895409170025091710260917202B5
:1017E00070917302452B462B472B69F30097A10597
:1017F000B10541F02AE22A95F1F700C00197A1094D
:10180000B109E1CF80916F020C94B7061F920F923D
:101810000FB60F9211242F933F938F939F93AF9303
:10182000BF938091140390911503A0911603B0917A
:10183000170330910F0323E0230F2D3758F501963E
:10184000A11DB11D20930F038093140390931503E2
:10185000A0931603B0931703809110039091110386
:10186000A0911203B09113030196A11DB11D8093A5
:10187000100390931103A0931203B0931303BF912D
:10188000AF919F918F913F912F910F900FBE0F902D
:101890001F90189526E8230F0296A11DB11DD2CFE7
:1018A0001F920F920FB60F9211242F933F934F93D5
:1018B0005F936F937F938F939F93AF93BF93EF93B8
:1018C000FF938091EC029091ED02A091EE02B09115
:1018D000EF02892B8A2B8B2BD1F19091EB02E091B7
:1018E000E902F091EA028081892780838091EC02ED
:1018F0009091ED02A091EE02B091EF021816190638
:101900001A061B069CF48091EC029091ED02A091C6
:10191000EE02B091EF020197A109B1098093EC02A8
:101920009093ED02A093EE02B093EF02FF91EF913E
:10193000BF91AF919F918F917F916F915F914F91E7
:101940003F912F910F900FBE0F901F90189580918F
:101950000001E8E6F0E0E4919FEF90930001E130B0
:1019600051F030F0E23069F060E00E942601DECFF5
:1019700010926E00F9CF90916F009D7F90936F0051
:10198000F3CF909170009D7F9093700091E09093C1
:10199000B0009091B100987F94609093B100109244
:1019A000B300E2CF1F920F920FB60F9211242F9324
:1019B0003F934F935F936F937F938F939F93AF93D7
:1019C000BF93EF93FF9388E193E00E94E305FF91BB
:1019D000EF91BF91AF919F918F917F916F915F91A7
:1019E0004F913F912F910F900FBE0F901F90189520
:1019F0001F920F920FB60F9211242F938F939F93E4
:101A0000EF93FF93E0912803F09129038081E09107
:101A10002E03F0912F0382FD1BC090818091310332
:101A20008F5F8F7320913203821741F0E091310371
:101A3000F0E0E85EFC4F958F80933103FF91EF91CA
:101A40009F918F912F910F900FBE0F901F9018951F
:101A50008081F4CF1F920F920FB60F9211242F9313
:101A60003F934F935F936F937F938F939F93AF9326
:101A7000BF93EF93FF938091B900887F803609F47C
:101A80004AC0F0F5883209F4A7C018F5803109F48E
:101A90009BC0B8F4882309F4F9C0883009F494C0D5
:101AA000FF91EF91BF91AF919F918F917F916F9136
:101AB0005F914F913F912F910F900FBE0F901F900C
:101AC0001895883109F488C0803251F78093B802A4
:101AD00014C0803409F49DC040F48033B9F38833D6
:101AE000F9F68093B80285ECB0C0803509F485C062
:101AF000883509F496C0883499F60E94CE0BD0CF71
:101B0000883909F48CC038F5883729F050F48836C4
:101B100011F0803729F683E08093B9021092B70262
:101B200057C0883809F47BC0803919F0803809F033
:101B3000B7CF8091B702803208F071C0E091B70250
:101B400081E08E0F8093B7028091BB00F0E0E956F0
:101B5000FD4F80833DC0803B39F0E0F4803A09F4CA
:101B600079C0883A09F09CCF84E08093B902109242
:101B7000960210929502E091F602F091F702099513
:101B80008091950281110FC081E08093950210929F
:101B9000750209C0803C09F4A6CF883C09F4A3CFA4
:101BA000883B09F07DCFE091960281E08E0F809313
:101BB0009602F0E0EB58FD4F80818093BB0090913E
:101BC00096028091950229C08091DE028093BB002D
:101BD00085EC8093BC0064CF9091DD028091DC02A3
:101BE000981758F5E091DD0281E08E0F8093DD02B9
:101BF000F0E0E454FD4F8081E9CFE091DD0281E027
:101C00008E0F8093DD028091BB00F0E0E454FD4F25
:101C100080839091DD028091DC029817C8F285E8FC
:101C2000D8CFE091DD0281E08E0F8093DD028091BC
:101C3000BB00F0E0E454FD4F80838091BB02811132
:101C40005CCF81E08093BA0284EA8093BC0010925A
:101C5000B90226CF85EC8093BC001092B902809126
:101C6000B702803230F4E091B702F0E0E956FD4F60
:101C700010826091B70270E0E091F402F091F502F9
:101C800087E992E009951092B7020ACF1092B80244
:101C900034CF1F920F920FB60F9211242F933F93C0
:101CA0004F935F936F937F938F939F93AF93BF9364
:101CB000CF93DF93EF93FF9380912D02C091E503C3
:101CC000D0E087FF24C0109285001092840080919C
:101CD0002D028F5F80932D0280912D02082E000C23
:101CE000990B8C179D0724F480912D028C30C4F140
:101CF0008091840090918500049680349C4908F47A
:101D00007AC08091840090918500049676C080917D
:101D10002D02082E000C990B8C179D07C4F6E0913C
:101D20002D028E2FEE0F990BFC01EE0FFF1FE80F17
:101D3000F91FEF53FC4F808186FFC9CFE0912D0240
:101D40008E2FEE0F990BFC01EE0FFF1FE80FF91F0E
:101D5000EF53FC4F808160E08F730E942601B7CF64
:101D60002091840030918500E0912D028E2FEE0F9E
:101D7000990BFC01EE0FFF1FE80FF91FEF53FC4F0B
:101D800081819281820F931F9093890080938800B4
:101D9000E0912D028E2FEE0F990BFC01EE0FFF1F2D
:101DA000E80FF91FEF53FC4F808186FF11C0E091CF
:101DB0002D028E2FEE0F990BFC01EE0FFF1FE80F87
:101DC000F91FEF53FC4F808161E08F730E94260161
:101DD000FF91EF91DF91CF91BF91AF919F918F9143
:101DE0007F916F915F914F913F912F910F900FBE17
:101DF0000F901F90189580E49CE990938900809340
:101E000088008FEF80932D02E3CF1F920F920FB6C1
:101E10000F9211242F933F934F935F936F937F9370
:101E20008F939F93AF93BF93EF93FF93E091F20251
:101E3000F091F302309749F0A685B7858585968D98
:101E400091FF14C09C918923A1F4FF91EF91BF9160
:101E5000AF919F918F917F916F915F914F913F9142
:101E60002F910F900FBE0F901F9018959C91892372
:101E700061F7A389B4899C918589809589238C9386
:101E8000868997890197F1F7608D718DA685B78551
:101E9000558538E020E0CB010197F1F7822F90E0E3
:101EA00095958795282F4C91452309F0206831504E
:101EB00091F7868D81FD20958091F10290E0019649
:101EC0008F7399273091F002381799F0A091F102A1
:101ED000B0E0A351BE4F2C938093F102828D938D7D
:101EE0000197F1F7A389B4898C919589892B8C93FB
:101EF000ACCF868D8160868FF1CF10921B0310923C
:101F00001A0388EE93E0A0E0B0E080931C03909366
:101F10001D03A0931E03B0931F0323E131E0309310
:101F200019032093180325EC30E030932503209308
:101F3000240324EC30E0309327032093260320EC85
:101F400030E0309329032093280321EC30E03093D4
:101F50002B0320932A0322EC30E030932D032093AF
:101F60002C0326EC30E030932F0320932E031092A5
:101F70003103109232031092330310923403109203
:101F8000B8031092B7038093B9039093BA03A09358
:101F9000BB03B093BC0325E231E03093B60320933A
:101FA000B50323E020931B042BE020931C04E2EBF9
:101FB000F0E0E491E0931D04EEE9F0E0E491E093B9
:101FC0001E0440E85EE360E070E040932304509319
:101FD0002404609325047093260410920D0410923B
:101FE0000C0429E431E030930B0420930A0427E227
:101FF00020930E0420E12093130422E02093140484
:10200000109215041092EE031092ED038093EF03EB
:102010009093F003A093F103B093F20387E391E070
:102020009093EC038093EB0310920204109201044E
:1020300010920404109203041092060410920504F6
:102040001092080410920704609109046E7F6D7F5E
:10205000609309046695617081E0682785E00E94BD
:10206000260161E085E00E945401E4EBF0E0E49198
:10207000E093FB03E0EAF0E0E491F0E0EE0FFF1FF5
:10208000EF56FF4F859194919093FD038093FC034D
:1020900060E084E00E9454018091090481FD04C045
:1020A00061E084E00E94260184E08093F703E3EB83
:1020B000F0E0E491E093F803EFE9F0E0E491F0E080
:1020C000EE0FFF1FE957FF4F859194919093FA030C
:1020D0008093F9038091E5038C30B8F491E0980F78
:1020E0009093E5038093E80390E0FC01EE0FFF1F5F
:1020F000E80FF91FEF53FC4F88EB9BE0928381833D
:102100001092E7031092E60308958FEF8093E8039F
:10211000F7CF789484B5826084BD84B5816084BD36
:1021200085B5826085BD85B5816085BD80916E0075
:10213000816080936E0010928100809181008260A6
:1021400080938100809181008160809381008091E3
:1021500080008160809380008091B10084608093D2
:10216000B1008091B00081608093B00080917A00CE
:10217000846080937A0080917A00826080937A00F4
:1021800080917A00816080937A0080917A008068E3
:1021900080937A001092C1001092060410920504F8
:1021A000109204041092030410920204109201048D
:1021B0008DE991E090930804809307049091F703D0
:1021C000963108F047C02DEB30E0309302042093A5
:1021D00001042BE931E030930404209303042CE242
:1021E00031E030930604209305042091680084E0D8
:1021F000983048F031E09E3008F430E081E001C0D2
:10220000880F3A95EAF7822B809368002DE630E03C
:10221000983050F02BE630E09E3030F02CE630E085
:10222000963110F030E020E03093FF032093FE035E
:10223000292F30E0983008F048C181E001C0880FB4
:102240009A95EAF78093000480910704909108041E
:102250000197F1F78091050490910604892B49F1CB
:10226000E091F202F091F30223E0EB3EF20709F174
:10227000309739F0A389B4899C9185898095892309
:102280008C93809109048E7F809309041092F1024F
:102290001092F0028BEE93E09093F3028093F2029F
:1022A000E091FE03F091FF03808190910004892B5F
:1022B000808362E080911B040E94540180E398EFC8
:1022C000AFEFBFEF80931F0490932004A0932104ED
:1022D000B09322041092FB021092FA021092F902BB
:1022E0001092F8020E9499068DEF92E09093F70207
:1022F0008093F6028EEF92E09093F5028093F402C1
:1023000010920F0480911404823018F098E090939A
:102310000F048093120462E370E080E090E00E947A
:10232000CA01609115048AE094E00E940A0968EEEF
:1023300073E080E090E00E94CA0160E38AE094E0EC
:102340000E94F5090BE416E4C8010197F1F760E378
:102350008AE094E00E94F509C8010197F1F760E373
:102360008AE094E00E94F50983E592E00197F1F795
:1023700060E28AE094E00E94F50960910F046062D7
:1023800040E08AE094E00E940E0A84E0809310040A
:1023900040E06CE08AE094E00E940E0A40E061E0D8
:1023A0008AE094E00E940E0A0BE31FE1C801019746
:1023B000F1F782E08093110440E066E08AE094E067
:1023C0000E940E0A40E062E08AE094E00E940E0A59
:1023D000C8010197F1F7C7E061E08C2F0E9454011A
:1023E000CF5FCE30C9F789E0E82E81E0F82E9BE37D
:1023F000C92E9FE1D92E00E010E08BEE93E00E9401
:10240000D207892B31F18BEE93E00E94E807C82FA9
:1024100088E193E00E94A105D82F60E671E088E191
:1024200093E00E945C0A6D2F88E193E00E9405060C
:102430006DE571E088E193E00E945C0AC23509F421
:1024400086C00CF04FC0C23409F49DC0C73409F4F3
:102450008CC02FB7F8948091140390911503A0912C
:102460001603B09117032FBF409104035091050349
:1024700060910603709107034C015D01841A950A6F
:10248000A60AB70AB501A401403D57406105710590
:1024900008F407C18093040390930503A0930603F7
:1024A000B09307030E94FC01882351F080911C0423
:1024B0008B3009F476C020F08551823008F492C048
:1024C00060E070E080EC9FE773C09E3040F42850DD
:1024D000310981E001C0880F2A95EAF7B3CE2E506A
:1024E0003109F7CFC73629F1C23789F0C23609F072
:1024F000B0CF6AE073E08AE090E00E94F7086FE8EE
:1025000071E08BEE93E00E945C0A8AE00DC068E007
:1025100073E088E090E00E94F7086BE671E08BEED4
:1025200093E00E945C0A88E00E94FD000E94960BE6
:1025300090CF69E073E089E090E00E94F7086DE7D2
:1025400071E08BEE93E00E945C0A89E0EDCF6BE0D6
:1025500073E08BE090E00E94F70862EA71E08BEE96
:1025600093E00E945C0A8BE0DFCF6CE073E08CE0CC
:1025700090E00E94F70865EB71E08BEE93E00E941B
:102580005C0A8CE0D1CF6DE073E08DE090E00E94BA
:10259000F70868EC71E08BEE93E00E945C0A8DE036
:1025A000C3CF6091180470E090E080E00E9416159F
:1025B00060930003709301038093020390930303DD
:1025C0000E94FC01882349F080911C048B3081F12A
:1025D00020F08551823008F4B5C060E070E080ECF6
:1025E0009FE72DC0C09118046C2F6F7770E090E0CA
:1025F00080E00E94181520E030E040E853E40E949B
:10260000CD154B015C016091190470E090E080E011
:102610000E941815A50194010E9476142DEC3CEC43
:102620004CEC5DE30E94CD15C7FFC2CF9058C0CFE0
:102630006091160470E090E080E00E9416156093AF
:10264000FC027093FD028093FE029093FF02809142
:10265000E603882331F180E00E94250A6BED71E0EA
:102660008AE094E00E945C0A60910003709101038B
:1026700080910203909103030E94B70A81E00E94B7
:10268000250A63EE71E08AE094E00E945C0A6091A2
:10269000FC027091FD028091FE029091FF020E9467
:1026A000B70A8EE00E949001853F21E092070CF46A
:1026B0006AC08091E70381111CC0C9E0D1E0699133
:1026C000799128EC30E040E050E082E00E94FF0287
:1026D00068EC70E080E090E00E94CA0181E0CF30B9
:1026E000D80769F790E080E00E94090881E08093B4
:1026F000E7038FE00E949001843691050CF067C0DB
:102700008091E603882391F01092E60340E061E0B7
:102710008AE094E00E940E0AC6010197F1F7109238
:10272000150460E08AE094E00E940A090115110591
:1027300009F463CE0E94CF05882309F45ECE0E947F
:1027400000005BCE6091160470E090E080E00E9493
:10275000161520E030E040E853E40E94CD154B010F
:102760005C016091170470E090E080E00E94181511
:10277000A50194010E9476142DEC3CEC4CEC5DE339
:102780000E94CD155CCF843F914009F4B2CF809177
:10279000E703882309F4ADCFC1E1D1E07A916A91D2
:1027A00028EC30E040E050E082E00E94FF0268EC5C
:1027B00070E080E090E00E94CA01EC16FD0671F71F
:1027C00084EB90E00E9409081092E70392CF8538CD
:1027D00093400CF4ABCF8091E6038111A7CF81E049
:1027E0008093E60388E0809315049BCF87E391E014
:1027F0009093EC038093EB038091F2029091F302AB
:102800008B5E934071F4E091FE03F091FF039081A1
:10281000809100048095892380831092F3021092A6
:10282000F2020895052E97FB1EF400940E942914CD
:1028300057FD07D00E94441407FC03D04EF40C94BB
:10284000291450954095309521953F4F4F4F5F4F3C
:10285000089590958095709561957F4F8F4F9F4F0C
:1028600008950E946614A59F900DB49F900DA49F9B
:10287000800D911D11240895B7FF0C9431140E940E
:102880003114821B930B0895A1E21A2EAA1BBB1BC5
:10289000FD010DC0AA1FBB1FEE1FFF1FA217B3072C
:1028A000E407F50720F0A21BB30BE40BF50B661F42
:1028B000771F881F991F1A9469F760957095809506
:1028C00090959B01AC01BD01CF010895A29FB0017D
:1028D000B39FC001A39F700D811D1124911DB29F54
:1028E000700D811D1124911D08955058BB27AA27F2
:1028F0000E948D140C948E150E94801538F00E9451
:10290000871520F039F49F3F19F426F40C947D15B7
:102910000EF4E095E7FB0C947715E92F0E949F15C4
:1029200058F3BA17620773078407950720F079F404
:10293000A6F50C94C1150EF4E0950B2EBA2FA02D20
:102940000B01B90190010C01CA01A0011124FF275C
:10295000591B99F0593F50F4503E68F11A16F04057
:10296000A22F232F342F4427585FF3CF4695379556
:102970002795A795F0405395C9F77EF41F16BA0B1B
:10298000620B730B840BBAF09150A1F0FF0FBB1FC9
:10299000661F771F881FC2F70EC0BA0F621F731F12
:1029A000841F48F4879577956795B795F7959E3F6F
:1029B00008F0B0CF9395880F08F09927EE0F979500
:1029C000879508950E94531508F481E008950E94A8
:1029D000A71588F09F5798F0B92F9927B751B0F0F5
:1029E000E1F0660F771F881F991F1AF0BA95C9F793
:1029F00014C0B13091F00E94C115B1E008950C945B
:102A0000C115672F782F8827B85F39F0B93FCCF30D
:102A1000869577956795B395D9F73EF4909580950F
:102A2000709561957F4F8F4F9F4F0895E89409C02F
:102A300097FB3EF490958095709561957F4F8F4FF1
:102A40009F4F9923A9F0F92F96E9BB279395F69507
:102A5000879577956795B795F111F8CFFAF4BB0F85
:102A600011F460FF1BC06F5F7F4F8F4F9F4F16C0E9
:102A7000882311F096E911C0772321F09EE8872F73
:102A8000762F05C0662371F096E8862F70E060E02F
:102A90002AF09A95660F771F881FDAF7880F9695A8
:102AA000879597F90895990F0008550FAA0BE0E84C
:102AB000FEEF16161706E807F907C0F01216130600
:102AC000E407F50798F0621B730B840B950B39F440
:102AD0000A2661F0232B242B252B21F408950A26A6
:102AE00009F4A140A6958FEF811D811D089597F9E6
:102AF0009F6780E870E060E008959FEF80EC0895A4
:102B000000240A94161617061806090608950024CC
:102B10000A9412161306140605060895092E039446
:102B2000000C11F4882352F0BB0F40F4BF2B11F4BA
:102B300060FF04C06F5F7F4F8F4F9F4F089557FD19
:102B40009058440F551F59F05F3F71F04795880F1B
:102B500097FB991F61F09F3F79F0879508951216B2
:102B600013061406551FF2CF4695F1DF08C016165E
:102B700017061806991FF1CF86957105610508940F
:102B80000895E894BB2766277727CB0197F9089526
:102B90000E94531508F48FEF08950E94E0150C94DD
:102BA0008E150E94801538F00E94871520F095231D
:102BB00011F00C9477150C947D1511240C94C2150A
:102BC0000E949F1570F3959FC1F3950F50E0551F1C
:102BD000629FF001729FBB27F00DB11D639FAA2772
:102BE000F00DB11DAA1F649F6627B00DA11D661FC1
:102BF000829F2227B00DA11D621F739FB00DA11DE2
:102C0000621F839FA00D611D221F749F3327A00D9B
:102C1000611D231F849F600D211D822F762F6A2F37
:102C200011249F5750409AF0F1F088234AF0EE0F9C
:102C3000FF1FBB1F661F771F881F91505040A9F7C9
:102C40009E3F510580F00C9477150C94C2155F3FA0
:102C5000E4F3983ED4F3869577956795B795F79505
:102C6000E7959F5FC1F7FE2B880F911D969587957D
:102C700097F908950E945315880B990B0895991B95
:102C800079E004C0991F961708F0961B881F7A9563
:102C9000C9F780950895EE0FFF1F0590F491E02D80
:102CA000099410E0C3E6D0E004C0FE010E944B1678
:0C2CB0002196C436D107C9F7F894FFCF75
:102CBC00FF00004000140054000B0216042D080005
:102CCC000000000506650592055206C305A105B571
:102CDC0005000000002F070207F209D806FB06E8E2
:102CEC0006D9060000000076076505F209D806D261
:102CFC0007E8075E0700000000560A6505F209F1B7
:102D0C00096E616E00696E66006F7666000D0A00D2
:102D1C0052656365697665643A200038EBB28820A9
:102D2C00ED958020EC8381ED839C3A200039EBB249
:102D3C008820ED958020EC8381ED839C3A20003136
:102D4C0030EBB28820ED958020EC8381ED839C3AAA
:102D5C0020003131EBB28820ED958020EC8381EDA1
:102D6C00839C3A20003132EBB28820ED958020EC28
:102D7C008381ED839C3A20003133EBB28820ED95B2
:102D8C008020EC8381ED839C3A200054656D70208B
:0C2D9C003A200068756D69203A200000A4
:00000001FF
