:020000040000FA
:100000000C9464000C948C000C948C000C945B0D8C
:100010000C945B0D0C945B0D0C948C000C94FE0AFC
:100020000C948C000C948C000C948C000C949F0C01
:100030000C948C000C948C000C948C000C948C0010
:100040000C94B40A0C948C000C948C000C948C00CE
:100050000C948C000C948C000C948C000C948C00F0
:100060000C94800B0C948C000200000000240027EC
:10007000002A00000000080002010000030407003D
:1000800000000000000000000000002300260029FE
:100090000000000000250028002B000404040404D4
:1000A0000404040202020202020303030303030125
:1000B00002040810204080010204081020010204FC
:1000C00008102000D30DEA1111241FBECFEFD8E095
:1000D000DEBFCDBF11E0A0E0B1E0E4EAF8E202C08B
:1000E00005900D92AC35B107D9F722E0ACE5B1E04F
:1000F00001C01D92AB3FB207E1F710E0C3E6D0E0CC
:1001000004C02197FE010E943F14C236D107C9F7EF
:100110000E94A10E0C9445140C9400008F929F92A3
:10012000AF92BF92CF92DF92EF92FF92CF93DF9385
:10013000A091F00230E081113A2F8091F10290E01D
:10014000880F991FAC0149575F4FC090F602D090BD
:10015000F702E090F802F090F90260E070E0CB0165
:10016000FA01C591D49128812A2323130FC04B0192
:100170005C012FEF821A920AA20AB20A6C157D0561
:100180008E059F0570F060E070E0CB01DF91CF91AC
:10019000FF90EF90DF90CF90BF90AF909F908F90A7
:1001A0000895C501B401DCCF90E0FC01ED58FF4F8C
:1001B0002491FC01E155FF4F3491FC01E556FF4FBE
:1001C000E491EE23C9F0222339F0233001F1A8F4A1
:1001D000213019F1223029F1F0E0EE0FFF1FEF5628
:1001E000FF4FA591B4918FB7F894EC91611126C09F
:1001F00030953E233C938FBF08952730A9F02830D7
:10020000C9F0243049F7809180008F7D03C0809130
:1002100080008F7780938000DFCF84B58F7784BD97
:10022000DBCF84B58F7DFBCF8091B0008F7780933B
:10023000B000D2CF8091B0008F7DF9CF3E2BDACFC6
:10024000CF93DF9390E0FC01E155FF4F2491855659
:100250009F4FFC0184918823C9F090E0880F991F7B
:10026000FC01E759FF4FA591B491FC01EF56FF4FF8
:10027000C591D49161110DC09FB7F8948C912095D0
:1002800082238C938881282328839FBFDF91CF917D
:100290000895623051F49FB7F8943C91822F809575
:1002A00083238C93E8812E2BEFCF8FB7F894EC91BA
:1002B0002E2B2C938FBFEACF8E3008F08E50877094
:1002C000806480937C0080917A00806480937A00BF
:1002D00080917A0086FDFCCF809178009091790022
:1002E00008953FB7F8948091800290918102A09187
:1002F0008202B091830226B5A89B05C02F3F19F05A
:100300000196A11DB11D3FBFBA2FA92F982F882795
:10031000BC01CD01620F711D811D911D42E0660F70
:10032000771F881F991F4A95D1F708958F929F9242
:10033000AF92BF92CF92DF92EF92FF924B015C019E
:100340000E9471016B017C010E9471016C197D0991
:100350008E099F09683E734081059105A8F321E04D
:10036000821A9108A108B10888EEC80E83E0D81E51
:10037000E11CF11C81149104A104B10429F7FF9040
:10038000EF90DF90CF90BF90AF909F908F900895A7
:10039000CF92DF92EF92FF920F931F93CF93DF9351
:1003A000CDB7DEB7C054D1400FB6F894DEBF0FBE54
:1003B000CDBF2FB7F8948091840290918502A091CF
:1003C0008602B09187022FBF4091F2025091F30252
:1003D0006091F4027091F5028C019D01041B150BD4
:1003E000260B370BB901A801403D57406105710547
:1003F00090F48091FA02C05CDE4F0FB6F894DEBF35
:100400000FBECDBFDF91CF911F910F91FF90EF9065
:10041000DF90CF9008958093F2029093F302A0931F
:10042000F402B093F5021092ED021092EC021092D9
:10043000EB021092EA021092E90261E08091EE0272
:100440000E94D4006AEF70E080E090E00E94960184
:1004500061E08091EE020E94200160E08091EE0256
:100460000E94D40064E170E080E090E00E94960178
:10047000F89461E08091EE020E94D4008BE990E054
:100480000197F1F762E08091EE020E94200183E281
:1004900090E00197F1F780E00E948E00672B682BB7
:1004A000692B29F41092FA02789480E0A4CF81E0BD
:1004B0000E948E00672B682B692BA1F38E010F5FC2
:1004C0001F4F6E012FEBC21A2EEFD20A780180E087
:1004D0000E948E00F701608371838283938381E0A1
:1004E0000E948E00F7016483758386839783F8E00A
:1004F000EF0EF11CEC14FD0451F7789430E020E08D
:10050000F801C080D180E280F3804481558166810A
:100510007781C114D104E104F10429F0411551059A
:100520006105710519F41092FA02BFCFF90183E059
:10053000F595E7958A95E1F7E751FD4F8081880FA2
:10054000C416D506E606F70610F180832F5F3F4FED
:10055000085F1F4F2832310599F64091ED02209136
:10056000E9028091EA02280F3327331F8091EB02C2
:10057000280F311D8091EC02820F932F911D992736
:100580004817190681F681E08093FA0234CF816022
:10059000DCCF089508954F925F926F927F928F9271
:1005A0009F92AF92BF92CF92DF92EF92FF920F9302
:1005B0001F93CF93DF9300D000D01F92CDB7DEB74B
:1005C0008B0129013A01909100018917C9F09F3FE1
:1005D00009F47EC00F900F900F900F900F90DF9155
:1005E000CF911F910F91FF90EF90DF90CF90BF9030
:1005F000AF909F908F907F906F905F904F900895F5
:10060000E8E6F0E094919D8397FDE4CF61E00E94DD
:1006100020018D81882321F09D81923009F04AC10B
:100620004801B12CA12C60E072E18AE790E0A501BD
:1006300098010E94061229833A834B835C836901E7
:100640007A0181E0C81AD108E108F1089FEFC916C4
:10065000D104E104F10409F00CF401C160E472E496
:100660008FE090E0A50198010E94061269017A01CD
:1006700081E0C81AD108E108F1089D81923009F0A3
:10068000A2C08FEFC816D104E104F10409F00CF404
:10069000E6C160E970ED83E090E0A50198010E9459
:1006A000061269017A0191E0C91AD108E108F1083E
:1006B0008FEFC816D104E104F10411F00CF07FC1F2
:1006C00083E09091B100987F892B8093B100CFC0D7
:1006D00080930001E8E6F0E094919D839F3F09F448
:1006E00079CF913041F150F0923009F446C09D81AC
:1006F00097FD70CF61E00E9420018ECF14BC15BC25
:1007000094B5926094BD95B5916095BD282F30E069
:10071000F901E556FF4FE491F0E0EE0FFF1FEF56B1
:10072000FF4F45915491F901E155FF4FE491E0935A
:1007300050021D826BCF1092800010928100909128
:1007400081009860909381009091810091609093D6
:100750008100282F30E0F901E556FF4FE491F0E0E9
:10076000EE0FFF1FEF56FF4F45915491F901E155F0
:10077000FF4FE491E0934F0249CF1092B0001092E6
:10078000B1009091B00092609093B0009091B10050
:1007900091609093B100282F30E0F901E556FF4FAA
:1007A000E491F0E0EE0FFF1FEF56FF4F459154919B
:1007B00050935A0240935902F901E155FF4FE491D9
:1007C000E0935B0223CF9FEFC916D104E104F1044B
:1007D00009F00CF46DC068E478EE81E090E0A501CA
:1007E00098010E94061269017A0181E0C81AD108B5
:1007F000E108F1089D81992309F4FAC08FEFC8162A
:10080000D104E104F10411F00CF0FBC0EFC064E28C
:1008100074EF80E090E0A50194010E940612690146
:100820007A0181E0C81AD108E108F10885E09FEF5C
:10083000C916D104E104F10409F008F442CF62E1E1
:100840007AE780E090E0A50194010E940612690118
:100850007A0181E0C81AD108E108F108E5C081E019
:100860009D8191112ECF95B5987F892B85BD2FEF56
:100870003FEFA901411451046104710409F043C020
:100880009D81913009F45EC0923009F46DC09111E0
:10089000A1CEC7BC20935502309356024093570215
:1008A0005093580280916E00826080936E0092CEC9
:1008B00082E0D6CFB12CA12C60E072E18AE790E013
:1008C000A50198010E94061269017A0181E0C81A07
:1008D000D108E108F108C114D10491E0E906F1045E
:1008E00004F591E08D81813011F680918100887F3F
:1008F000892B809381002FEF3FEFA9014114510410
:1009000061047104F9F0D801AA0FBB1FA301920181
:100910000E94251228EE33E040E050E00E94381299
:10092000AFCF68E478EE81E090E0A50198010E94E5
:10093000061269017A0181E0C81AD108E108F108BC
:1009400093E0D0CFD0928900C092880020935102CA
:1009500030935202409353025093540280916F009F
:10096000826080936F0036CEC092B30020935C0209
:1009700030935D0240935E0250935F02809170005D
:1009800082608093700026CE84E09FEFC916D10468
:10099000E104F10409F008F466CFC980DA80EB8045
:1009A000FC808AE0F594E794D794C7948A95D1F7B0
:1009B00081E0C81AD108E108F10885E054CF68E465
:1009C00078EE81E090E0A50198010E94061269018D
:1009D0007A0181E0C81AD108E108F1089FEFC91631
:1009E000D104E104F10411F00CF011CF84E069CEE0
:1009F00083E09FEFC916D104E104F10409F00CF47F
:100A000032CF62E17AE780E090E0A50194010E9494
:100A1000061269017A0181E0C81AD108E108F108DB
:100A20009D81992309F4B0CF86E09FEFC916D104C8
:100A3000E104F10409F008F444CEC980DA80EB80C7
:100A4000FC809AE0F594E794D794C7949A95D1F7EF
:100A500081E0C81AD108E108F10887E032CE82E0CF
:100A600030CEAF92BF92CF92DF92EF92FF920F9370
:100A70001F93CF93DF936C017B018B01040F151F34
:100A8000EB015E01AE18BF08C017D10759F069919C
:100A9000D601ED91FC910190F081E02DC601099500
:100AA000892B79F7C501DF91CF911F910F91FF90AD
:100AB000EF90DF90CF90BF90AF9008952091050206
:100AC000260F3327331F21323105ECF42091290200
:100AD000FC0190E080E0243069F082E00895A0916C
:100AE00005022191AC014B515E4FA40FB52FB11DF2
:100AF0002C930196861798F380910502680F6093F6
:100B0000050280E0089581E008951092290281E0B5
:100B100080932B0210922A0261E082E10E94D400AD
:100B200061E083E10E94D400E9EBF0E080818E7FF8
:100B3000808380818D7F808388E48093B80085E402
:100B40008093BC000895CF93DF9391E09093E401EC
:100B50008823B9F0C091B800D091BA008091BC0050
:100B60008A7B8093BC0060E082E10E94D40060E058
:100B700083E10E94D4000E948505D093BA00C093FF
:100B8000B800DF91CF9108950895E0916B028091B4
:100B90006A02E81730F4F0E0E154FE4F808190E003
:100BA00008958FEF9FEF089590916B0280916A02F4
:100BB0002FEF3FEF981748F4E92FF0E0E154FE4F94
:100BC000208130E09F5F90936B02C901089580916E
:100BD0006A0290916B02891B990B0895CF92DF9264
:100BE000EF92FF920F931F93CF93DF937C01CB0182
:100BF0008A012091BE01222389F0EB016B01C40E12
:100C0000D51ECC15DD0569F06991D701ED91FC91F8
:100C10000190F081E02DC7010995F3CF642F0E9468
:100C20005E05C801DF91CF911F910F91FF90EF906A
:100C3000DF90CF900895CF93DF931F92CDB7DEB7AB
:100C400069832091BE012223F9F0209168022032AD
:100C500058F021E030E0FC013383228390E080E013
:100C60000F90DF91CF91089580916902E82FF0E015
:100C7000E256FE4F998190838F5F80936902809343
:100C8000680281E090E0ECCF61E0CE0101960E9425
:100C90005E05F7CF20916202309163022817390771
:100CA00071F49091600280916102981741F0E09197
:100CB0006002F0E0E35AFE4F808190E008958FEFEC
:100CC0009FEF0895EF92FF920F931F93CF93DF93BF
:100CD000DC015C96ED90FC905D97E114F10479F4F1
:100CE00081E090E013969C938E93129790E080E0C1
:100CF000DF91CF911F910F91FF90EF900895519642
:100D0000ED91FC91529750968C915097982F909519
:100D10000FB75E962C915E97122F127021FD609591
:100D2000F8942081112319F1282B2083E7012197C2
:100D3000F1F728E0462F50E0308160FF1AC0382BD1
:100D40003083E7012197F1F7BA0175956795215036
:100D500089F7112381F08081892380830FBF5C96FE
:100D60008D919C910197F1F781E090E0C1CF29230B
:100D7000DCCF3923E5CF9081892BEFCF2091620220
:100D8000309163022817390761F480916102209144
:100D9000600290E0805C9F4F821B91098F739927BE
:100DA000089590E080E008952091620230916302FE
:100DB00028173907B9F49091600280916102981761
:100DC00089F0E0916002F0E0E35AFE4F80812091CB
:100DD000600230E02F5F3F4F2F7333272093600274
:100DE00090E008958FEF9FEF0895CF92DF92EF92FA
:100DF000FF921F93CF93DF93EC018091BB028C3065
:100E000008F051C061E086E00E9420018091BB02A1
:100E1000282F30E0F901EE0FFF1FE20FF31FEC5611
:100E2000FD4F9081907C966090831092BC0210924E
:100E3000BD022CE0622F0E943314829FB001112466
:100E400030E020E0AB01420F531FFA01EE0FFF1F0D
:100E5000E40FF51FEC56FD4F908196FD16C02F5FF5
:100E60003F4F2C30310571F781110FC01092800077
:100E700082E0809381001092850010928400B19AE4
:100E800080916F00826080936F00E091BB028E2F93
:100E900090E0FC01EE0FFF1FE80FF91FEC56FD4F2D
:100EA0008081806480831091BB02C03282E0D807C9
:100EB000E4F58091BC02E8E8CE2ED12CC81AD10806
:100EC00087FDD394CC0CDD1CCC0CDD1C0D2C000C50
:100ED000EE08FF088091BD0228E532E0281B3109A9
:100EE00087FD3395220F331F220F331F032E000C73
:100EF000440B550B2C193D094E095F09DE01C53B1A
:100F0000D10514F0A4EBB0E0B7FF02C0B0E0A0E060
:100F10000E94301224EB30E040E050E00E940612C4
:100F2000C20ED31EE41EF51EE6011C3080F5209192
:100F3000BC0288E890E0821B910927FD9395880FF9
:100F4000991F880F991FC817D90784F02091BD02F7
:100F500088E592E0821B910927FD9395880F991FE0
:100F6000880F991FC817D9070CF4CE010297880F74
:100F7000991F4FB7F894212F30E0F901EE0FFF1FB2
:100F8000E20FF31FEC56FD4F928381834FBF6CE25B
:100F900071E080E090E00E949601E091BB028E2F0C
:100FA00090E0FC01EE0FFF1FE80FF91FEC56FD4F1C
:100FB00080818F7B8083DF91CF911F91FF90EF9095
:100FC000DF90CF900895CF93DF93EB01988191113B
:100FD00008C061E00E94D40081E08883DF91CF9156
:100FE000089560E00E94D4001882F8CFCF92DF927B
:100FF000EF92FF920F931F93CF93DF93FC01C48175
:1010000021E02093BE01C0935C011092690210920E
:1010100068028385682B88E892E00E941B06D091C5
:101020006802D13208F092C00E9471016B017C010C
:1010300080912902811165C082E08093290281E0BC
:1010400080932B028FEF8093280210924D02D09351
:101050004C02AEE9B1E0ECE2F2E080E0D81385C0EA
:1010600010924E0280914E02CC0FC82BC0934E02BC
:1010700080912A02813009F07CC010922A020E94DD
:1010800071016B017C0180914E028093BB008091C5
:10109000E0019091E101A091E201B091E301892B7F
:1010A0008A2B8B2B99F00E9471010091E001109125
:1010B000E1012091E2013091E3016C197D098E0973
:1010C0009F090617170728073907E0F18091BC0030
:1010D00083FDD9CF85EC8093BC000E9471016B0128
:1010E0007C0180912902823009F445C08091280258
:1010F0008F3F61F180912802803241F18091280276
:1011000025C08091E0019091E101A091E201B091B0
:10111000E301892B8A2B8B2B09F48ACF0E94710162
:101120000091E0011091E1012091E2013091E30191
:101130006C197D098E099F090617170728073907BB
:1011400008F076CF8091DF010E94A305109269021A
:10115000109268021092BE01DF91CF911F910F9102
:10116000FF90EF90DF90CF9008959D9191938F5FC6
:1011700075CF85EEB0CF8091E0019091E101A09113
:10118000E201B091E301892B8A2B8B2B09F4A9CFC3
:101190000E9471010091E0011091E1012091E201B2
:1011A0003091E3016C197D098E099F090617170715
:1011B0002807390708F095CFC5CF089590E080E063
:1011C00008950F931F93CF938C01C62F0E94F607AB
:1011D0006C2F6460C8010E94F6076C2F6B7FC801FA
:1011E0000E94F60783EC90E00197F1F7CF911F91F1
:1011F0000F9108950F931F93CF93DF938C01D62FF8
:10120000C42F607F642B0E94E10880E1D89FB00169
:1012100011246C2BC801DF91CF911F910F910C9479
:10122000E108CF93DF93CDB7DEB728970FB6F894D8
:10123000DEBF0FBECDBF98E0E1E0F1E0DE01119628
:1012400001900D929A95E1F79091E502981708F4B4
:101250008FEF90E0880F991F21E030E02C0F3D1FA9
:10126000820F931FFC016081606840E08DED92E089
:1012700028960FB6F894DEBF0FBECDBFDF91CF9199
:101280000C94FA0841E00E94FA0881E090E0089589
:10129000FB0101900020E9F73197AF01461B570B86
:1012A000DC01ED91FC910280F381E02D09948F9295
:1012B0009F92AF92BF92EF92FF920F931F93CF93A3
:1012C000DF93CDB7DEB7A1970FB6F894DEBF0FBEA0
:1012D000CDBF7C01FA01CB0119A2223008F42AE02B
:1012E0008E010F5D1F4F822E912CB12CA12CBF01BE
:1012F000A50194010E943812F901CA016A300CF567
:10130000605DD8016E938D01232B242B252B79F75B
:1013100090E080E0109721F0BD01C7010E944809CC
:10132000A1960FB6F894DEBF0FBECDBFDF91CF916F
:101330001F910F91FF90EF90BF90AF909F908F9073
:101340000895695CDECF8F929F92AF92BF92CF9249
:10135000DF92EF92FF920F931F93CF93DF93EC01F5
:101360006A017B01AB019601CB01B6010E942E14EC
:101370006FE371E0811126C046015701E894B7F888
:101380002FEF3FEF4FE75FE7C501B4010E942E1436
:1013900081110CC02FEF3FEF4FE75FE7C501B401AC
:1013A0000E94D61263E471E0181664F02FEF3FEF4D
:1013B0004FE75FE4C701B6010E94BC1318168CF416
:1013C00067E471E0CE01DF91CF911F910F91FF9003
:1013D000EF90DF90CF90BF90AF909F908F900C9444
:1013E00048092FEF3FEF4FE75FECC701B6010E94BE
:1013F000D61287FDE5CF20E030E0A901C701B60194
:101400000E94D61210E000E087FF0DC0E881F9814C
:101410000190F081E02D6DE2CE0109958C01F7FA83
:10142000F094F7F8F0942AE037ED43EA5BE3C70164
:10143000B6010E946A124B015C010E94DB126B0133
:101440007C010E940A139B01AC01C501B4010E94FA
:1014500069124B015C012AE0B701A601CE010E948E
:101460005709080F191FE881F9810190F081E02DDB
:101470006EE2CE010995080F191F20E030E040E22E
:1014800051E4C501B4010E94C1134B015C010E94EB
:10149000DB126B01F12CE12C2AE0B701A601CE0191
:1014A0000E945709080F191FC701B6010E940A13AD
:1014B0009B01AC01C501B4010E94691220E030E03B
:1014C00040E251E40E94C1130E94DB12AB0170E0C4
:1014D00060E02AE0CE010E945709800F911FDF9142
:1014E000CF911F910F91FF90EF90DF90CF90BF9021
:1014F000AF909F908F90089585ED8093BC00809170
:10150000E0019091E101A091E201B091E301079621
:10151000A11DB11D23E0B695A795979587952A95AE
:10152000D1F72091BC0024FD03C010922902089538
:101530004091E0015091E1016091E2017091E3017D
:10154000452B462B472B69F30097A105B10541F0C8
:101550002AE22A95F1F700C00197A109B109E1CF6C
:101560008091DF010C94A3051F920F920FB60F928A
:1015700011242F933F938F939F93AF93BF938091A9
:10158000840290918502A0918602B09187023091E9
:101590007F0223E0230F2D3758F50196A11DB11DC1
:1015A00020937F028093840290938502A093860209
:1015B000B09387028091800290918102A091820273
:1015C000B09183020196A11DB11D8093800290937A
:1015D0008102A0938202B0938302BF91AF919F9149
:1015E0008F913F912F910F900FBE0F901F901895E4
:1015F00026E8230F0296A11DB11DD2CF1F920F9294
:101600000FB60F9211242F933F934F935F936F93D5
:101610007F938F939F93AF93BF93EF93FF938091AB
:101620005C0290915D02A0915E02B0915F02892BF5
:101630008A2B8B2BD1F190915B02E0915902F091B2
:101640005A0280818927808380915C0290915D029B
:10165000A0915E02B0915F02181619061A061B06C9
:101660009CF480915C0290915D02A0915E02B09129
:101670005F020197A109B10980935C0290935D021A
:10168000A0935E02B0935F02FF91EF91BF91AF9183
:101690009F918F917F916F915F914F913F912F918A
:1016A0000F900FBE0F901F90189580910001E8E6F3
:1016B000F0E0E4919FEF90930001E13051F030F0C1
:1016C000E23069F060E00E94D400DECF10926E003C
:1016D000F9CF90916F009D7F90936F00F3CF909121
:1016E00070009D7F9093700091E09093B000909176
:1016F000B100987F94609093B1001092B300E2CF54
:101700001F920F920FB60F9211242F933F934F9376
:101710005F936F937F938F939F93AF93BF93EF9359
:10172000FF938091B900887F803609F44AC0F0F5B4
:10173000883209F4A7C018F5803109F49BC0B8F4C9
:10174000882309F4F9C0883009F494C0FF91EF911F
:10175000BF91AF919F918F917F916F915F914F91C9
:101760003F912F910F900FBE0F901F9018958831C9
:1017700009F488C0803251F78093280214C0803465
:1017800009F49DC040F48033B9F38833F9F68093AF
:10179000280285ECB0C0803509F485C0883509F48D
:1017A00096C0883499F60E947C0AD0CF883909F413
:1017B0008CC038F5883729F050F4883611F080371E
:1017C00029F683E0809329021092270257C08838B7
:1017D00009F47BC0803919F0803809F0B7CF8091C7
:1017E0002702803208F071C0E091270281E08E0F5D
:1017F000809327028091BB00F0E0E95FFD4F80837A
:101800003DC0803B39F0E0F4803A09F479C0883A71
:1018100009F09CCF84E08093290210920602109276
:101820000502E0916602F091670209958091050238
:1018300081110FC081E0809305021092E50109C07B
:10184000803C09F4A6CF883C09F4A3CF883B09F07B
:101850007DCFE091060281E08E0F80930602F0E0DA
:10186000EB51FE4F80818093BB00909106028091E6
:10187000050229C080914E028093BB0085EC8093C5
:10188000BC0064CF90914D0280914C02981758F59E
:10189000E0914D0281E08E0F80934D02F0E0E45D17
:1018A000FD4F8081E9CFE0914D0281E08E0F809362
:1018B0004D028091BB00F0E0E45DFD4F808390918C
:1018C0004D0280914C029817C8F285E8D8CFE0917C
:1018D0004D0281E08E0F80934D028091BB00F0E0BD
:1018E000E45DFD4F808380912B0281115CCF81E00C
:1018F00080932A0284EA8093BC001092290226CFAA
:1019000085EC8093BC0010922902809127028032DE
:1019100030F4E0912702F0E0E95FFD4F1082609122
:10192000270270E0E0916402F091650287E092E0A6
:101930000995109227020ACF1092280234CF1F92E5
:101940000F920FB60F9211242F933F934F935F93F3
:101950006F937F938F939F93AF93BF93CF93DF93B7
:10196000EF93FF9380919D01C091B802D0E087FF73
:1019700024C0109285001092840080919D018F5F99
:1019800080939D0180919D01082E000C990B8C176E
:101990009D0724F480919D018C30C4F180918400D6
:1019A00090918500049680349C4908F47AC0809117
:1019B000840090918500049676C080919D01082E48
:1019C000000C990B8C179D07C4F6E0919D018E2F9A
:1019D000EE0F990BFC01EE0FFF1FE80FF91FEC56FD
:1019E000FD4F808186FFC9CFE0919D018E2FEE0FC4
:1019F000990BFC01EE0FFF1FE80FF91FEC56FD4F8E
:101A0000808160E08F730E94D400B7CF2091840062
:101A100030918500E0919D018E2FEE0F990BFC0116
:101A2000EE0FFF1FE80FF91FEC56FD4F81819281E9
:101A3000820F931F9093890080938800E0919D010D
:101A40008E2FEE0F990BFC01EE0FFF1FE80FF91F11
:101A5000EC56FD4F808186FF11C0E0919D018E2FD5
:101A6000EE0F990BFC01EE0FFF1FE80FF91FEC566C
:101A7000FD4F808161E08F730E94D400FF91EF9150
:101A8000DF91CF91BF91AF919F918F917F916F9196
:101A90005F914F913F912F910F900FBE0F901F902C
:101AA000189580E49CE990938900809388008FEFDB
:101AB00080939D01E3CF1F920F920FB60F921124D6
:101AC0002F933F934F935F936F937F938F939F9346
:101AD000AF93BF93EF93FF93E0916202F0916302A3
:101AE000309749F0A685B7858585968D91FF14C0FE
:101AF0009C918923A1F4FF91EF91BF91AF919F91A8
:101B00008F917F916F915F914F913F912F910F90A6
:101B10000FBE0F901F9018959C91892361F7A389A0
:101B2000B4899C918589809589238C93868997892E
:101B30000197F1F7608D718DA685B785558538E0E1
:101B400020E0CB010197F1F7822F90E095958795E2
:101B5000282F4C91452309F02068315091F7868D4C
:101B600081FD20958091610290E001968F73992705
:101B700030916002381799F0A0916102B0E0A35A49
:101B8000BE4F2C9380936102828D938D0197F1F764
:101B9000A389B4898C919589892B8C93ACCF868D40
:101BA0008160868FF1CF10928B0210928A0288EEAC
:101BB00093E0A0E0B0E080938C0290938D02A0931C
:101BC0008E02B0938F0223E131E03093890220939B
:101BD000880223E02093EE022BE02093EF02E2EB59
:101BE000F0E0E491E093F002EEE9F0E0E491E093BC
:101BF000F10240E85EE360E070E04093F60250934B
:101C0000F7026093F8027093F9021092E0021092CA
:101C1000DF0227E331E03093DE022093DD0227E28A
:101C20002093E10220E12093E60222E02093E702E4
:101C30001092E8021092C1021092C0028093C20278
:101C40009093C302A093C402B093C50285E291E0D1
:101C50009093BF028093BE021092D5021092D402DC
:101C60001092D7021092D6021092D9021092D80286
:101C70001092DB021092DA026091DC026E7F6D7FBF
:101C80006093DC026695617081E0682785E00E94C0
:101C9000D40061E085E00E942001E4EBF0E0E491F3
:101CA000E093CE02E0EAF0E0E491F0E0EE0FFF1FF7
:101CB000EF56FF4F859194919093D0028093CF027D
:101CC00060E084E00E9420018091DC0281FD04C07C
:101CD00061E084E00E94D40084E08093CA02E3EBD8
:101CE000F0E0E491E093CB02EFE9F0E0E491F0E082
:101CF000EE0FFF1FE957FF4F859194919093CD020E
:101D00008093CC028091B8028C30B8F491E0980FA7
:101D10009093B8028093BB0290E0FC01EE0FFF1F8E
:101D2000E80FF91FEC56FD4F88EB9BE0928381830F
:101D30001092BA021092B90208958FEF8093BB02FD
:101D4000F7CF789484B5826084BD84B5816084BD0A
:101D500085B5826085BD85B5816085BD80916E0049
:101D6000816080936E00109281008091810082607A
:101D700080938100809181008160809381008091B7
:101D800080008160809380008091B10084608093A6
:101D9000B1008091B00081608093B00080917A00A2
:101DA000846080937A0080917A00826080937A00C8
:101DB00080917A00816080937A0080917A008068B7
:101DC00080937A001092C1001092D9021092D8022A
:101DD0001092D7021092D6021092D5021092D4021D
:101DE0008DE991E09093DB028093DA029091CA0230
:101DF000963108F047C02DEB30E03093D5022093A8
:101E0000D4022BE931E03093D7022093D6022CE2A2
:101E100031E03093D9022093D8022091680084E009
:101E2000983048F031E09E3008F430E081E001C0A5
:101E3000880F3A95EAF7822B809368002DE630E010
:101E4000983050F02BE630E09E3030F02CE630E059
:101E5000963110F030E020E03093D2022093D1028E
:101E6000292F30E0983008F0FEC081E001C0880FD3
:101E70009A95EAF78093D3028091DA029091DB027F
:101E80000197F1F78091D8029091D902892B49F1FD
:101E9000E0916202F091630222E0EE3BF20709F169
:101EA000309739F0A389B4899C91858980958923DD
:101EB0008C938091DC028E7F8093DC021092610211
:101EC000109260028EEB92E0909363028093620224
:101ED000E091D102F091D20280819091D302892BBE
:101EE000808362E08091EE020E94200180E398EFFF
:101EF000AFEFBFEF8093F2029093F302A093F4024E
:101F0000B093F50210926B0210926A02109269026D
:101F1000109268020E94850589EC92E09093670216
:101F2000809366028AEC92E090936502809364024B
:101F30001092E2028091E702823018F098E09093CC
:101F4000E2028093E50262E370E080E090E00E94AC
:101F500096016091E8028DED92E00E94F60768EE2E
:101F600073E080E090E00E94960160E38DED92E0E6
:101F70000E94E108CBE4D6E4CE010197F1F760E3DB
:101F80008DED92E00E94E1082197F1F760E38DED7D
:101F900092E00E94E10883E592E00197F1F760E2A8
:101FA0008DED92E00E94E1086091E202606240E003
:101FB0008DED92E00E94FA0884E08093E30240E015
:101FC0006CE08DED92E00E94FA0840E061E08DED5A
:101FD00092E00E94FA08CBE3DFE1CE010197F1F72E
:101FE00082E08093E40240E066E08DED92E00E94A2
:101FF000FA0840E062E08DED92E00E94FA08219735
:10200000F1F7C7E061E08C2F0E942001CF5FCE3056
:10201000C9F7C9E0D1E00FE011E03BE3E32E3FE177
:10202000F32E40E0C42E40E0D42E58E0352E8EEB47
:1020300092E00E94BE06892B49F18EEB92E00E944D
:10204000D406EFE9E80FE73008F50E2E000CFF0B81
:10205000E45DFF4E0C943F144010831088108D10E7
:10206000921097109C109E3040F42850310981E066
:1020700001C0880F2A95EAF7FDCE2E503109F7CF1F
:1020800068E772E088E090E00E94E3072FB7F894D9
:102090008091840290918502A0918602B09187027E
:1020A0002FBF409174025091750260917602709139
:1020B00077024C015D01841A950AA60AB70AB50198
:1020C000A401403D57406105710508F4DDC08093CF
:1020D000740290937502A0937602B09377020E94E7
:1020E000C801882349F08091EF028B3051F120F034
:1020F0008551823008F448C0412C512C20EC622ECE
:102100002FE7722E27C069E772E089E090E0BCCF2C
:102110006AE772E08AE090E0B7CF6BE772E08BE0AD
:1021200090E0B2CF6CE772E08CE090E0ADCF6DE76D
:1021300072E08DE090E0A8CF6EE772E087E090E07B
:10214000A3CF6091EB0270E090E080E00E940A1360
:102150002B013C0140927002509271026092720217
:10216000709273020E94C801882349F08091EF02A7
:102170008B30A9F120F08551823008F4D4C060E0A2
:1021800070E080EC9FE732C02090EB02622D6F7709
:1021900070E090E080E00E940C1320E030E040E826
:1021A00053E40E94C1134B015C016091EC0270E0AA
:1021B00090E080E00E940C13A50194010E946A1235
:1021C0002DEC3CEC4CEC5DE30E94C1132B013C0177
:1021D00027FEC0CF77FA709477F87094BBCF6091E8
:1021E000E90270E090E080E00E940A1360936C02C4
:1021F00070936D0280936E0290936F028EEB92E06B
:102200000E94BE06892B91F0B301A2018EEB92E0F1
:102210000E94A30940916C0250916D0260916E0280
:1022200070916F028EEB92E00E94A3098091B90237
:10223000882351F180E00E9411096BE471E08DED7B
:1022400092E00E94480940917002509171026091A1
:102250007202709173028DED92E00E94A30981E0F9
:102260000E94110963E571E08DED92E00E9448093A
:1022700040916C0250916D0260916E0270916F02FC
:102280008DED92E00E94A3098EE00E945C01853FE3
:10229000E1E09E070CF468C08091BA0281111FC072
:1022A00099E0A92E91E0B92EF501619171915F013C
:1022B00028EC30E040E050E082E00E94CB0268EC85
:1022C00070E080E090E00E9496010A151B0561F71E
:1022D00090E080E00E94F50681E08093BA028FE0F2
:1022E0000E945C01843691050CF066C08091B902B1
:1022F000882391F01092B90240E061E08DED92E008
:102300000E94FA08C7010197F1F71092E80260E015
:102310008DED92E00E94F607C114D10409F487CE36
:102320000E94000084CE6091E90270E090E080E0BD
:102330000E940A1320E030E040E853E40E94C113F9
:102340004B015C016091EA0270E090E080E00E9445
:102350000C13A50194010E946A122DEC3CEC4CEC8C
:102360005DE30E94C11342CF843F914009F4B7CF8F
:102370008091BA02882309F4B2CF81E1A82E81E0CE
:10238000B82EF501729162915F0128EC30E040E0D7
:1023900050E082E00E94CB0268EC70E080E090E0C8
:1023A0000E949601CA15DB0561F784EB90E00E945C
:1023B000F5061092BA0293CF853893400CF4ACCF57
:1023C0008091B9028111A8CF81E08093B902309247
:1023D000E8029DCF85E291E09093BF028093BE0218
:1023E00080916202909163028E5B924071F4E09161
:1023F000D102F091D20290818091D30280958923FD
:10240000808310926302109262020895052E97FB5A
:102410001EF400940E941D1257FD07D00E9438122E
:1024200007FC03D04EF40C941D1250954095309546
:1024300021953F4F4F4F5F4F089590958095709530
:1024400061957F4F8F4F9F4F08950E945A12A59F0D
:10245000900DB49F900DA49F800D911D112408959F
:10246000B7FF0C9425120E942512821B930B08952E
:10247000A1E21A2EAA1BBB1BFD010DC0AA1FBB1F88
:10248000EE1FFF1FA217B307E407F50720F0A21BFA
:10249000B30BE40BF50B661F771F881F991F1A9467
:1024A00069F760957095809590959B01AC01BD0191
:1024B000CF010895A29FB001B39FC001A39F700DEB
:1024C000811D1124911DB29F700D811D1124911D3C
:1024D00008955058BB27AA270E9481120C9482139A
:1024E0000E94741338F00E947B1320F039F49F3F50
:1024F00019F426F40C9471130EF4E095E7FB0C9498
:102500006B13E92F0E94931358F3BA1762077307EE
:102510008407950720F079F4A6F50C94B5130EF412
:10252000E0950B2EBA2FA02D0B01B90190010C01E3
:10253000CA01A0011124FF27591B99F0593F50F4FB
:10254000503E68F11A16F040A22F232F342F442753
:10255000585FF3CF469537952795A795F04053954B
:10256000C9F77EF41F16BA0B620B730B840BBAF01B
:102570009150A1F0FF0FBB1F661F771F881FC2F786
:102580000EC0BA0F621F731F841F48F4879577959A
:102590006795B795F7959E3F08F0B0CF9395880F54
:1025A00008F09927EE0F9795879508950E94471395
:1025B00008F481E008950E949B1388F09F5798F0DB
:1025C000B92F9927B751B0F0E1F0660F771F881F38
:1025D000991F1AF0BA95C9F714C0B13091F00E9452
:1025E000B513B1E008950C94B513672F782F8827A1
:1025F000B85F39F0B93FCCF3869577956795B39579
:10260000D9F73EF490958095709561957F4F8F4FE7
:102610009F4F0895E89409C097FB3EF490958095EC
:10262000709561957F4F8F4F9F4F9923A9F0F92F98
:1026300096E9BB279395F695879577956795B79516
:10264000F111F8CFFAF4BB0F11F460FF1BC06F5FFC
:102650007F4F8F4F9F4F16C0882311F096E911C00E
:10266000772321F09EE8872F762F05C0662371F02F
:1026700096E8862F70E060E02AF09A95660F771F43
:10268000881FDAF7880F9695879597F90895990F1F
:102690000008550FAA0BE0E8FEEF16161706E8072C
:1026A000F907C0F012161306E407F50798F0621B4D
:1026B000730B840B950B39F40A2661F0232B242B22
:1026C000252B21F408950A2609F4A140A6958FEF41
:1026D000811D811D089597F99F6780E870E060E093
:1026E00008959FEF80EC089500240A9416161706AB
:1026F00018060906089500240A94121613061406F3
:1027000005060895092E0394000C11F4882352F055
:10271000BB0F40F4BF2B11F460FF04C06F5F7F4F0D
:102720008F4F9F4F089557FD9058440F551F59F0F4
:102730005F3F71F04795880F97FB991F61F09F3FAE
:1027400079F087950895121613061406551FF2CFD7
:102750004695F1DF08C0161617061806991FF1CF27
:1027600086957105610508940895E894BB2766274E
:102770007727CB0197F908950E94471308F48FEF4C
:1027800008950E94D4130C9482130E94741338F09D
:102790000E947B1320F0952311F00C946B130C9482
:1027A000711311240C94B6130E94931370F3959F28
:1027B000C1F3950F50E0551F629FF001729FBB2738
:1027C000F00DB11D639FAA27F00DB11DAA1F649FD4
:1027D0006627B00DA11D661F829F2227B00DA11D87
:1027E000621F739FB00DA11D621F839FA00D611D0D
:1027F000221F749F3327A00D611D231F849F600D2E
:10280000211D822F762F6A2F11249F5750409AF056
:10281000F1F088234AF0EE0FFF1FBB1F661F771FE2
:10282000881F91505040A9F79E3F510580F00C94AD
:102830006B130C94B6135F3FE4F3983ED4F3869584
:1028400077956795B795F795E7959F5FC1F7FE2B4D
:10285000880F911D9695879597F908950E944713C3
:10286000880B990B0895991B79E004C0991F96175E
:1028700008F0961B881F7A95C9F780950895EE0F8A
:10288000FF1F0590F491E02D099410E0C3E6D0E01D
:1028900004C0FE010E943F142196C436D107C9F737
:1028A000F894FFCFFF00004000140054000B021604
:1028B000042D08000000001B06EE05DE08C405E735
:1028C00005D405C5050000000062063105DE08C418
:1028D00005BE06D4064A060000000042093105DEA6
:1028E00008DD086E616E00696E66006F76660054E2
:1028F000656D70203A200068756D69203A200000EF
:107E0000112484B714BE81FFF0D085E080938100F7
:107E100082E08093C00088E18093C10086E0809377
:107E2000C20080E18093C4008EE0C9D0259A86E02C
:107E300020E33CEF91E0309385002093840096BBD3
:107E4000B09BFECF1D9AA8958150A9F7CC24DD24C4
:107E500088248394B5E0AB2EA1E19A2EF3E0BF2EE7
:107E6000A2D0813461F49FD0082FAFD0023811F036
:107E7000013811F484E001C083E08DD089C08234E0
:107E800011F484E103C0853419F485E0A6D080C0E4
:107E9000853579F488D0E82EFF2485D0082F10E0AE
:107EA000102F00270E291F29000F111F8ED06801E7
:107EB0006FC0863521F484E090D080E0DECF843638
:107EC00009F040C070D06FD0082F6DD080E0C81688
:107ED00080E7D80618F4F601B7BEE895C0E0D1E017
:107EE00062D089930C17E1F7F0E0CF16F0E7DF06D8
:107EF00018F0F601B7BEE89568D007B600FCFDCFD4
:107F0000A601A0E0B1E02C9130E011968C91119780
:107F100090E0982F8827822B932B1296FA010C0160
:107F200087BEE89511244E5F5F4FF1E0A038BF0790
:107F300051F7F601A7BEE89507B600FCFDCF97BE46
:107F4000E89526C08437B1F42ED02DD0F82E2BD052
:107F50003CD0F601EF2C8F010F5F1F4F84911BD097
:107F6000EA94F801C1F70894C11CD11CFA94CF0C13
:107F7000D11C0EC0853739F428D08EE10CD085E9AC
:107F80000AD08FE07ACF813511F488E018D01DD067
:107F900080E101D065CF982F8091C00085FFFCCF94
:107FA0009093C60008958091C00087FFFCCF809118
:107FB000C00084FD01C0A8958091C6000895E0E648
:107FC000F0E098E1908380830895EDDF803219F02E
:107FD00088E0F5DFFFCF84E1DECF1F93182FE3DFCA
:107FE0001150E9F7F2DF1F91089580E0E8DFEE27F6
:047FF000FF270994CA
:027FFE00040479
:00000001FF
